{
  "address": "0x3C2E7A0616d205eEB6a0b49dFE98b3d364F38796",
  "abi": [
    {
      "inputs": [
        {
          "internalType": "contract IUniRouter",
          "name": "router",
          "type": "address"
        },
        {
          "components": [
            {
              "internalType": "address",
              "name": "tokenA",
              "type": "address"
            },
            {
              "internalType": "address",
              "name": "tokenB",
              "type": "address"
            },
            {
              "internalType": "uint256",
              "name": "amountADesired",
              "type": "uint256"
            },
            {
              "internalType": "uint256",
              "name": "amountBDesired",
              "type": "uint256"
            },
            {
              "internalType": "uint256",
              "name": "amountAMin",
              "type": "uint256"
            },
            {
              "internalType": "uint256",
              "name": "amountBMin",
              "type": "uint256"
            },
            {
              "internalType": "address",
              "name": "to",
              "type": "address"
            },
            {
              "internalType": "uint256",
              "name": "deadline",
              "type": "uint256"
            }
          ],
          "internalType": "struct ArcherSwapRouter.AddLiquidity",
          "name": "liquidity",
          "type": "tuple"
        }
      ],
      "name": "addLiquidityAndTipAmount",
      "outputs": [],
      "stateMutability": "payable",
      "type": "function"
    },
    {
      "inputs": [
        {
          "internalType": "contract IUniRouter",
          "name": "router",
          "type": "address"
        },
        {
          "components": [
            {
              "internalType": "address",
              "name": "tokenA",
              "type": "address"
            },
            {
              "internalType": "address",
              "name": "tokenB",
              "type": "address"
            },
            {
              "internalType": "uint256",
              "name": "amountADesired",
              "type": "uint256"
            },
            {
              "internalType": "uint256",
              "name": "amountBDesired",
              "type": "uint256"
            },
            {
              "internalType": "uint256",
              "name": "amountAMin",
              "type": "uint256"
            },
            {
              "internalType": "uint256",
              "name": "amountBMin",
              "type": "uint256"
            },
            {
              "internalType": "address",
              "name": "to",
              "type": "address"
            },
            {
              "internalType": "uint256",
              "name": "deadline",
              "type": "uint256"
            }
          ],
          "internalType": "struct ArcherSwapRouter.AddLiquidity",
          "name": "liquidity",
          "type": "tuple"
        },
        {
          "internalType": "uint256",
          "name": "tipAmount",
          "type": "uint256"
        }
      ],
      "name": "addLiquidityETHAndTipAmount",
      "outputs": [],
      "stateMutability": "payable",
      "type": "function"
    },
    {
      "inputs": [
        {
          "internalType": "contract IUniRouter",
          "name": "router",
          "type": "address"
        },
        {
          "components": [
            {
              "internalType": "address",
              "name": "tokenA",
              "type": "address"
            },
            {
              "internalType": "address",
              "name": "tokenB",
              "type": "address"
            },
            {
              "internalType": "uint256",
              "name": "amountADesired",
              "type": "uint256"
            },
            {
              "internalType": "uint256",
              "name": "amountBDesired",
              "type": "uint256"
            },
            {
              "internalType": "uint256",
              "name": "amountAMin",
              "type": "uint256"
            },
            {
              "internalType": "uint256",
              "name": "amountBMin",
              "type": "uint256"
            },
            {
              "internalType": "address",
              "name": "to",
              "type": "address"
            },
            {
              "internalType": "uint256",
              "name": "deadline",
              "type": "uint256"
            }
          ],
          "internalType": "struct ArcherSwapRouter.AddLiquidity",
          "name": "liquidity",
          "type": "tuple"
        },
        {
          "components": [
            {
              "internalType": "contract IERC20Extended",
              "name": "token",
              "type": "address"
            },
            {
              "internalType": "uint256",
              "name": "amount",
              "type": "uint256"
            },
            {
              "internalType": "uint256",
              "name": "deadline",
              "type": "uint256"
            },
            {
              "internalType": "uint8",
              "name": "v",
              "type": "uint8"
            },
            {
              "internalType": "bytes32",
              "name": "r",
              "type": "bytes32"
            },
            {
              "internalType": "bytes32",
              "name": "s",
              "type": "bytes32"
            }
          ],
          "internalType": "struct ArcherSwapRouter.Permit",
          "name": "permit",
          "type": "tuple"
        },
        {
          "internalType": "uint256",
          "name": "tipAmount",
          "type": "uint256"
        }
      ],
      "name": "addLiquidityETHWithPermitAndTipAmount",
      "outputs": [],
      "stateMutability": "payable",
      "type": "function"
    },
    {
      "inputs": [
        {
          "internalType": "contract IUniRouter",
          "name": "router",
          "type": "address"
        },
        {
          "components": [
            {
              "internalType": "address",
              "name": "tokenA",
              "type": "address"
            },
            {
              "internalType": "address",
              "name": "tokenB",
              "type": "address"
            },
            {
              "internalType": "uint256",
              "name": "amountADesired",
              "type": "uint256"
            },
            {
              "internalType": "uint256",
              "name": "amountBDesired",
              "type": "uint256"
            },
            {
              "internalType": "uint256",
              "name": "amountAMin",
              "type": "uint256"
            },
            {
              "internalType": "uint256",
              "name": "amountBMin",
              "type": "uint256"
            },
            {
              "internalType": "address",
              "name": "to",
              "type": "address"
            },
            {
              "internalType": "uint256",
              "name": "deadline",
              "type": "uint256"
            }
          ],
          "internalType": "struct ArcherSwapRouter.AddLiquidity",
          "name": "liquidity",
          "type": "tuple"
        },
        {
          "components": [
            {
              "internalType": "contract IERC20Extended",
              "name": "token",
              "type": "address"
            },
            {
              "internalType": "uint256",
              "name": "amount",
              "type": "uint256"
            },
            {
              "internalType": "uint256",
              "name": "deadline",
              "type": "uint256"
            },
            {
              "internalType": "uint8",
              "name": "v",
              "type": "uint8"
            },
            {
              "internalType": "bytes32",
              "name": "r",
              "type": "bytes32"
            },
            {
              "internalType": "bytes32",
              "name": "s",
              "type": "bytes32"
            }
          ],
          "internalType": "struct ArcherSwapRouter.Permit",
          "name": "permitA",
          "type": "tuple"
        },
        {
          "components": [
            {
              "internalType": "contract IERC20Extended",
              "name": "token",
              "type": "address"
            },
            {
              "internalType": "uint256",
              "name": "amount",
              "type": "uint256"
            },
            {
              "internalType": "uint256",
              "name": "deadline",
              "type": "uint256"
            },
            {
              "internalType": "uint8",
              "name": "v",
              "type": "uint8"
            },
            {
              "internalType": "bytes32",
              "name": "r",
              "type": "bytes32"
            },
            {
              "internalType": "bytes32",
              "name": "s",
              "type": "bytes32"
            }
          ],
          "internalType": "struct ArcherSwapRouter.Permit",
          "name": "permitB",
          "type": "tuple"
        }
      ],
      "name": "addLiquidityWithPermitAndTipAmount",
      "outputs": [],
      "stateMutability": "payable",
      "type": "function"
    },
    {
      "inputs": [
        {
          "internalType": "contract IUniRouter",
          "name": "router",
          "type": "address"
        },
        {
          "components": [
            {
              "internalType": "contract IERC20Extended",
              "name": "lpToken",
              "type": "address"
            },
            {
              "internalType": "address",
              "name": "tokenA",
              "type": "address"
            },
            {
              "internalType": "address",
              "name": "tokenB",
              "type": "address"
            },
            {
              "internalType": "uint256",
              "name": "liquidity",
              "type": "uint256"
            },
            {
              "internalType": "uint256",
              "name": "amountAMin",
              "type": "uint256"
            },
            {
              "internalType": "uint256",
              "name": "amountBMin",
              "type": "uint256"
            },
            {
              "internalType": "address",
              "name": "to",
              "type": "address"
            },
            {
              "internalType": "uint256",
              "name": "deadline",
              "type": "uint256"
            }
          ],
          "internalType": "struct ArcherSwapRouter.RemoveLiquidity",
          "name": "liquidity",
          "type": "tuple"
        }
      ],
      "name": "removeLiquidityAndTipAmount",
      "outputs": [],
      "stateMutability": "payable",
      "type": "function"
    },
    {
      "inputs": [
        {
          "internalType": "contract IUniRouter",
          "name": "router",
          "type": "address"
        },
        {
          "components": [
            {
              "internalType": "contract IERC20Extended",
              "name": "lpToken",
              "type": "address"
            },
            {
              "internalType": "address",
              "name": "tokenA",
              "type": "address"
            },
            {
              "internalType": "address",
              "name": "tokenB",
              "type": "address"
            },
            {
              "internalType": "uint256",
              "name": "liquidity",
              "type": "uint256"
            },
            {
              "internalType": "uint256",
              "name": "amountAMin",
              "type": "uint256"
            },
            {
              "internalType": "uint256",
              "name": "amountBMin",
              "type": "uint256"
            },
            {
              "internalType": "address",
              "name": "to",
              "type": "address"
            },
            {
              "internalType": "uint256",
              "name": "deadline",
              "type": "uint256"
            }
          ],
          "internalType": "struct ArcherSwapRouter.RemoveLiquidity",
          "name": "liquidity",
          "type": "tuple"
        }
      ],
      "name": "removeLiquidityETHAndTipAmount",
      "outputs": [],
      "stateMutability": "payable",
      "type": "function"
    },
    {
      "inputs": [
        {
          "internalType": "contract IUniRouter",
          "name": "router",
          "type": "address"
        },
        {
          "components": [
            {
              "internalType": "contract IERC20Extended",
              "name": "lpToken",
              "type": "address"
            },
            {
              "internalType": "address",
              "name": "tokenA",
              "type": "address"
            },
            {
              "internalType": "address",
              "name": "tokenB",
              "type": "address"
            },
            {
              "internalType": "uint256",
              "name": "liquidity",
              "type": "uint256"
            },
            {
              "internalType": "uint256",
              "name": "amountAMin",
              "type": "uint256"
            },
            {
              "internalType": "uint256",
              "name": "amountBMin",
              "type": "uint256"
            },
            {
              "internalType": "address",
              "name": "to",
              "type": "address"
            },
            {
              "internalType": "uint256",
              "name": "deadline",
              "type": "uint256"
            }
          ],
          "internalType": "struct ArcherSwapRouter.RemoveLiquidity",
          "name": "liquidity",
          "type": "tuple"
        },
        {
          "components": [
            {
              "internalType": "contract IERC20Extended",
              "name": "token",
              "type": "address"
            },
            {
              "internalType": "uint256",
              "name": "amount",
              "type": "uint256"
            },
            {
              "internalType": "uint256",
              "name": "deadline",
              "type": "uint256"
            },
            {
              "internalType": "uint8",
              "name": "v",
              "type": "uint8"
            },
            {
              "internalType": "bytes32",
              "name": "r",
              "type": "bytes32"
            },
            {
              "internalType": "bytes32",
              "name": "s",
              "type": "bytes32"
            }
          ],
          "internalType": "struct ArcherSwapRouter.Permit",
          "name": "permit",
          "type": "tuple"
        }
      ],
      "name": "removeLiquidityETHWithPermitAndTipAmount",
      "outputs": [],
      "stateMutability": "payable",
      "type": "function"
    },
    {
      "inputs": [
        {
          "internalType": "contract IUniRouter",
          "name": "router",
          "type": "address"
        },
        {
          "components": [
            {
              "internalType": "contract IERC20Extended",
              "name": "lpToken",
              "type": "address"
            },
            {
              "internalType": "address",
              "name": "tokenA",
              "type": "address"
            },
            {
              "internalType": "address",
              "name": "tokenB",
              "type": "address"
            },
            {
              "internalType": "uint256",
              "name": "liquidity",
              "type": "uint256"
            },
            {
              "internalType": "uint256",
              "name": "amountAMin",
              "type": "uint256"
            },
            {
              "internalType": "uint256",
              "name": "amountBMin",
              "type": "uint256"
            },
            {
              "internalType": "address",
              "name": "to",
              "type": "address"
            },
            {
              "internalType": "uint256",
              "name": "deadline",
              "type": "uint256"
            }
          ],
          "internalType": "struct ArcherSwapRouter.RemoveLiquidity",
          "name": "liquidity",
          "type": "tuple"
        },
        {
          "components": [
            {
              "internalType": "contract IERC20Extended",
              "name": "token",
              "type": "address"
            },
            {
              "internalType": "uint256",
              "name": "amount",
              "type": "uint256"
            },
            {
              "internalType": "uint256",
              "name": "deadline",
              "type": "uint256"
            },
            {
              "internalType": "uint8",
              "name": "v",
              "type": "uint8"
            },
            {
              "internalType": "bytes32",
              "name": "r",
              "type": "bytes32"
            },
            {
              "internalType": "bytes32",
              "name": "s",
              "type": "bytes32"
            }
          ],
          "internalType": "struct ArcherSwapRouter.Permit",
          "name": "permit",
          "type": "tuple"
        }
      ],
      "name": "removeLiquidityWithPermitAndTipAmount",
      "outputs": [],
      "stateMutability": "payable",
      "type": "function"
    },
    {
      "inputs": [
        {
          "internalType": "contract IUniRouter",
          "name": "router",
          "type": "address"
        },
        {
          "components": [
            {
              "internalType": "uint256",
              "name": "amountIn",
              "type": "uint256"
            },
            {
              "internalType": "uint256",
              "name": "amountOutMin",
              "type": "uint256"
            },
            {
              "internalType": "address[]",
              "name": "path",
              "type": "address[]"
            },
            {
              "internalType": "address payable",
              "name": "to",
              "type": "address"
            },
            {
              "internalType": "uint256",
              "name": "deadline",
              "type": "uint256"
            }
          ],
          "internalType": "struct ArcherSwapRouter.Trade",
          "name": "trade",
          "type": "tuple"
        },
        {
          "internalType": "uint256",
          "name": "tipAmount",
          "type": "uint256"
        }
      ],
      "name": "swapETHForTokensWithTipAmount",
      "outputs": [],
      "stateMutability": "payable",
      "type": "function"
    },
    {
      "inputs": [
        {
          "internalType": "contract IUniRouter",
          "name": "router",
          "type": "address"
        },
        {
          "components": [
            {
              "internalType": "uint256",
              "name": "amountIn",
              "type": "uint256"
            },
            {
              "internalType": "uint256",
              "name": "amountOutMin",
              "type": "uint256"
            },
            {
              "internalType": "address[]",
              "name": "path",
              "type": "address[]"
            },
            {
              "internalType": "address payable",
              "name": "to",
              "type": "address"
            },
            {
              "internalType": "uint256",
              "name": "deadline",
              "type": "uint256"
            }
          ],
          "internalType": "struct ArcherSwapRouter.Trade",
          "name": "trade",
          "type": "tuple"
        },
        {
          "internalType": "uint32",
          "name": "tipPct",
          "type": "uint32"
        }
      ],
      "name": "swapETHForTokensWithTipPct",
      "outputs": [],
      "stateMutability": "payable",
      "type": "function"
    },
    {
      "inputs": [
        {
          "internalType": "contract IUniRouter",
          "name": "router",
          "type": "address"
        },
        {
          "components": [
            {
              "internalType": "uint256",
              "name": "amountIn",
              "type": "uint256"
            },
            {
              "internalType": "uint256",
              "name": "amountOutMin",
              "type": "uint256"
            },
            {
              "internalType": "address[]",
              "name": "path",
              "type": "address[]"
            },
            {
              "internalType": "address payable",
              "name": "to",
              "type": "address"
            },
            {
              "internalType": "uint256",
              "name": "deadline",
              "type": "uint256"
            }
          ],
          "internalType": "struct ArcherSwapRouter.Trade",
          "name": "trade",
          "type": "tuple"
        }
      ],
      "name": "swapTokensForETHAndTipAmount",
      "outputs": [],
      "stateMutability": "payable",
      "type": "function"
    },
    {
      "inputs": [
        {
          "internalType": "contract IUniRouter",
          "name": "router",
          "type": "address"
        },
        {
          "components": [
            {
              "internalType": "uint256",
              "name": "amountIn",
              "type": "uint256"
            },
            {
              "internalType": "uint256",
              "name": "amountOutMin",
              "type": "uint256"
            },
            {
              "internalType": "address[]",
              "name": "path",
              "type": "address[]"
            },
            {
              "internalType": "address payable",
              "name": "to",
              "type": "address"
            },
            {
              "internalType": "uint256",
              "name": "deadline",
              "type": "uint256"
            }
          ],
          "internalType": "struct ArcherSwapRouter.Trade",
          "name": "trade",
          "type": "tuple"
        },
        {
          "internalType": "uint32",
          "name": "tipPct",
          "type": "uint32"
        }
      ],
      "name": "swapTokensForETHAndTipPct",
      "outputs": [],
      "stateMutability": "payable",
      "type": "function"
    },
    {
      "inputs": [
        {
          "internalType": "contract IUniRouter",
          "name": "router",
          "type": "address"
        },
        {
          "components": [
            {
              "internalType": "uint256",
              "name": "amountIn",
              "type": "uint256"
            },
            {
              "internalType": "uint256",
              "name": "amountOutMin",
              "type": "uint256"
            },
            {
              "internalType": "address[]",
              "name": "path",
              "type": "address[]"
            },
            {
              "internalType": "address payable",
              "name": "to",
              "type": "address"
            },
            {
              "internalType": "uint256",
              "name": "deadline",
              "type": "uint256"
            }
          ],
          "internalType": "struct ArcherSwapRouter.Trade",
          "name": "trade",
          "type": "tuple"
        },
        {
          "components": [
            {
              "internalType": "contract IERC20Extended",
              "name": "token",
              "type": "address"
            },
            {
              "internalType": "uint256",
              "name": "amount",
              "type": "uint256"
            },
            {
              "internalType": "uint256",
              "name": "deadline",
              "type": "uint256"
            },
            {
              "internalType": "uint8",
              "name": "v",
              "type": "uint8"
            },
            {
              "internalType": "bytes32",
              "name": "r",
              "type": "bytes32"
            },
            {
              "internalType": "bytes32",
              "name": "s",
              "type": "bytes32"
            }
          ],
          "internalType": "struct ArcherSwapRouter.Permit",
          "name": "permit",
          "type": "tuple"
        }
      ],
      "name": "swapTokensForETHWithPermitAndTipAmount",
      "outputs": [],
      "stateMutability": "payable",
      "type": "function"
    },
    {
      "inputs": [
        {
          "internalType": "contract IUniRouter",
          "name": "router",
          "type": "address"
        },
        {
          "components": [
            {
              "internalType": "uint256",
              "name": "amountIn",
              "type": "uint256"
            },
            {
              "internalType": "uint256",
              "name": "amountOutMin",
              "type": "uint256"
            },
            {
              "internalType": "address[]",
              "name": "path",
              "type": "address[]"
            },
            {
              "internalType": "address payable",
              "name": "to",
              "type": "address"
            },
            {
              "internalType": "uint256",
              "name": "deadline",
              "type": "uint256"
            }
          ],
          "internalType": "struct ArcherSwapRouter.Trade",
          "name": "trade",
          "type": "tuple"
        },
        {
          "components": [
            {
              "internalType": "contract IERC20Extended",
              "name": "token",
              "type": "address"
            },
            {
              "internalType": "uint256",
              "name": "amount",
              "type": "uint256"
            },
            {
              "internalType": "uint256",
              "name": "deadline",
              "type": "uint256"
            },
            {
              "internalType": "uint8",
              "name": "v",
              "type": "uint8"
            },
            {
              "internalType": "bytes32",
              "name": "r",
              "type": "bytes32"
            },
            {
              "internalType": "bytes32",
              "name": "s",
              "type": "bytes32"
            }
          ],
          "internalType": "struct ArcherSwapRouter.Permit",
          "name": "permit",
          "type": "tuple"
        },
        {
          "internalType": "uint32",
          "name": "tipPct",
          "type": "uint32"
        }
      ],
      "name": "swapTokensForETHWithPermitAndTipPct",
      "outputs": [],
      "stateMutability": "payable",
      "type": "function"
    },
    {
      "inputs": [
        {
          "internalType": "contract IUniRouter",
          "name": "router",
          "type": "address"
        },
        {
          "components": [
            {
              "internalType": "uint256",
              "name": "amountIn",
              "type": "uint256"
            },
            {
              "internalType": "uint256",
              "name": "amountOutMin",
              "type": "uint256"
            },
            {
              "internalType": "address[]",
              "name": "path",
              "type": "address[]"
            },
            {
              "internalType": "address payable",
              "name": "to",
              "type": "address"
            },
            {
              "internalType": "uint256",
              "name": "deadline",
              "type": "uint256"
            }
          ],
          "internalType": "struct ArcherSwapRouter.Trade",
          "name": "trade",
          "type": "tuple"
        },
        {
          "components": [
            {
              "internalType": "contract IERC20Extended",
              "name": "token",
              "type": "address"
            },
            {
              "internalType": "uint256",
              "name": "amount",
              "type": "uint256"
            },
            {
              "internalType": "uint256",
              "name": "deadline",
              "type": "uint256"
            },
            {
              "internalType": "uint8",
              "name": "v",
              "type": "uint8"
            },
            {
              "internalType": "bytes32",
              "name": "r",
              "type": "bytes32"
            },
            {
              "internalType": "bytes32",
              "name": "s",
              "type": "bytes32"
            }
          ],
          "internalType": "struct ArcherSwapRouter.Permit",
          "name": "permit",
          "type": "tuple"
        }
      ],
      "name": "swapTokensForTokensWithPermitAndTipAmount",
      "outputs": [],
      "stateMutability": "payable",
      "type": "function"
    },
    {
      "inputs": [
        {
          "internalType": "contract IUniRouter",
          "name": "router",
          "type": "address"
        },
        {
          "components": [
            {
              "internalType": "uint256",
              "name": "amountIn",
              "type": "uint256"
            },
            {
              "internalType": "uint256",
              "name": "amountOutMin",
              "type": "uint256"
            },
            {
              "internalType": "address[]",
              "name": "path",
              "type": "address[]"
            },
            {
              "internalType": "address payable",
              "name": "to",
              "type": "address"
            },
            {
              "internalType": "uint256",
              "name": "deadline",
              "type": "uint256"
            }
          ],
          "internalType": "struct ArcherSwapRouter.Trade",
          "name": "trade",
          "type": "tuple"
        },
        {
          "components": [
            {
              "internalType": "contract IERC20Extended",
              "name": "token",
              "type": "address"
            },
            {
              "internalType": "uint256",
              "name": "amount",
              "type": "uint256"
            },
            {
              "internalType": "uint256",
              "name": "deadline",
              "type": "uint256"
            },
            {
              "internalType": "uint8",
              "name": "v",
              "type": "uint8"
            },
            {
              "internalType": "bytes32",
              "name": "r",
              "type": "bytes32"
            },
            {
              "internalType": "bytes32",
              "name": "s",
              "type": "bytes32"
            }
          ],
          "internalType": "struct ArcherSwapRouter.Permit",
          "name": "permit",
          "type": "tuple"
        },
        {
          "internalType": "address[]",
          "name": "pathToEth",
          "type": "address[]"
        },
        {
          "internalType": "uint256",
          "name": "minEth",
          "type": "uint256"
        },
        {
          "internalType": "uint32",
          "name": "tipPct",
          "type": "uint32"
        }
      ],
      "name": "swapTokensForTokensWithPermitAndTipPct",
      "outputs": [],
      "stateMutability": "payable",
      "type": "function"
    },
    {
      "inputs": [
        {
          "internalType": "contract IUniRouter",
          "name": "router",
          "type": "address"
        },
        {
          "components": [
            {
              "internalType": "uint256",
              "name": "amountIn",
              "type": "uint256"
            },
            {
              "internalType": "uint256",
              "name": "amountOutMin",
              "type": "uint256"
            },
            {
              "internalType": "address[]",
              "name": "path",
              "type": "address[]"
            },
            {
              "internalType": "address payable",
              "name": "to",
              "type": "address"
            },
            {
              "internalType": "uint256",
              "name": "deadline",
              "type": "uint256"
            }
          ],
          "internalType": "struct ArcherSwapRouter.Trade",
          "name": "trade",
          "type": "tuple"
        }
      ],
      "name": "swapTokensForTokensWithTipAmount",
      "outputs": [],
      "stateMutability": "payable",
      "type": "function"
    },
    {
      "inputs": [
        {
          "internalType": "contract IUniRouter",
          "name": "router",
          "type": "address"
        },
        {
          "components": [
            {
              "internalType": "uint256",
              "name": "amountIn",
              "type": "uint256"
            },
            {
              "internalType": "uint256",
              "name": "amountOutMin",
              "type": "uint256"
            },
            {
              "internalType": "address[]",
              "name": "path",
              "type": "address[]"
            },
            {
              "internalType": "address payable",
              "name": "to",
              "type": "address"
            },
            {
              "internalType": "uint256",
              "name": "deadline",
              "type": "uint256"
            }
          ],
          "internalType": "struct ArcherSwapRouter.Trade",
          "name": "trade",
          "type": "tuple"
        },
        {
          "internalType": "address[]",
          "name": "pathToEth",
          "type": "address[]"
        },
        {
          "internalType": "uint256",
          "name": "minEth",
          "type": "uint256"
        },
        {
          "internalType": "uint32",
          "name": "tipPct",
          "type": "uint32"
        }
      ],
      "name": "swapTokensForTokensWithTipPct",
      "outputs": [],
      "stateMutability": "payable",
      "type": "function"
    },
    {
      "inputs": [],
      "name": "tipJar",
      "outputs": [
        {
          "internalType": "contract ITipJar",
          "name": "",
          "type": "address"
        }
      ],
      "stateMutability": "view",
      "type": "function"
    }
  ],
  "transactionHash": "0x1d99f38b8205df0f569b4029948f29e6471d07fa6327779402fc23d582c24621",
  "args": [],
  "solcInputHash": "aa97a7fbad5819b3e188951a4299a465",
  "bytecode": "0x608060405234801561001057600080fd5b5061332f806100206000396000f3fe6080604052600436106101445760003560e01c806361692ecf116100c05780637aaceb9511610074578063b05703fc11610059578063b05703fc146102b9578063e6f03f72146102cc578063ef973cc0146102df57610144565b80637aaceb9514610255578063a8bd55bf146102a657610144565b80637366e884116100a55780637366e8841461021c5780637583d2bd1461022f57806375b715581461024257610144565b806361692ecf146101f6578063646318381461020957610144565b80633322874611610117578063500e5c7b116100fc578063500e5c7b146101bd5780635a7df949146101d05780635e94e5d2146101e357610144565b806333228746146101975780634ea618ac146101aa57610144565b806319a0f5a01461014957806328230aa11461015e578063298525f1146101715780632fce156114610184575b600080fd5b61015c610157366004612c17565b6102f2565b005b61015c61016c366004612bcf565b6103a8565b61015c61017f366004612cf7565b6104a3565b61015c610192366004612c65565b61055b565b61015c6101a5366004612eb5565b61076c565b61015c6101b8366004612ad0565b6107fd565b61015c6101cb366004612eb5565b610922565b61015c6101de366004612d4e565b610a5c565b61015c6101f1366004612cf7565b610ca2565b61015c610204366004612b7c565b610dc1565b61015c610217366004612e5e565b610f10565b61015c61022a366004612a9a565b61100f565b61015c61023d366004612bcf565b6110d1565b61015c610250366004612c17565b6111ae565b34801561026157600080fd5b5061027d735312b0d160e16feeeec13437a0053009e756428781565b60405173ffffffffffffffffffffffffffffffffffffffff909116815260200160405180910390f35b61015c6102b4366004612bbc565b6112bd565b61015c6102c7366004612df7565b61137a565b61015c6102da366004612bbc565b611425565b61015c6102ed366004612b2b565b6114f2565b60003411610361576040517f08c379a000000000000000000000000000000000000000000000000000000000815260206004820152601660248201527f74697020616d6f756e74206d757374206265203e20300000000000000000000060448201526064015b60405180910390fd5b6103838282356020840135610379604086018661316e565b8660800135611651565b61038c3461177e565b6103a461039f6080830160608401612a5e565b6117f6565b5050565b60003411610412576040517f08c379a000000000000000000000000000000000000000000000000000000000815260206004820152601660248201527f74697020616d6f756e74206d757374206265203e2030000000000000000000006044820152606401610358565b61041b3461177e565b61045461042b6020830183612a5e565b602083013560408401356104456080860160608701612f72565b85608001358660a00135611863565b61049e836104656020850185612a5e565b6104756040860160208701612a5e565b6060860135608087013560a088013561049460e08a0160c08b01612a5e565b8960e00135611909565b505050565b6000341161050d576040517f08c379a000000000000000000000000000000000000000000000000000000000815260206004820152601660248201527f74697020616d6f756e74206d757374206265203e2030000000000000000000006044820152606401610358565b61051d61042b6020830183612a5e565b61053f8383356020850135610535604087018761316e565b8760800135611651565b6105483461177e565b61049e61039f6080840160608501612a5e565b60008163ffffffff16116105cb576040517f08c379a000000000000000000000000000000000000000000000000000000000815260206004820152601260248201527f746970506374206d757374206265203e203000000000000000000000000000006044820152606401610358565b6105ed86863560208801356105e360408a018a61316e565b8a60800135611ab8565b600084846000818110610629577f4e487b7100000000000000000000000000000000000000000000000000000000600052603260045260246000fd5b905060200201602081019061063e9190612a5e565b6040517f70a0823100000000000000000000000000000000000000000000000000000000815230600482015290915060009073ffffffffffffffffffffffffffffffffffffffff8316906370a082319060240160206040518083038186803b1580156106a957600080fd5b505afa1580156106bd573d6000803e3d6000fd5b505050506040513d601f19601f820116820180604052508101906106e19190612f0a565b90506000620f42406106f963ffffffff861684613225565b61070391906131ec565b9050610748898289898080602002602001604051908101604052809392919081815260200183836020028082843760009201919091525050505060808c013589611baa565b6107618361075c60808b0160608c01612a5e565b611cfe565b505050505050505050565b60008163ffffffff16116107dc576040517f08c379a000000000000000000000000000000000000000000000000000000000815260206004820152601260248201527f746970506374206d757374206265203e203000000000000000000000000000006044820152606401610358565b6107f48383356020850135610535604087018761316e565b61054881611dbf565b60003411610867576040517f08c379a000000000000000000000000000000000000000000000000000000000815260206004820152601660248201527f74697020616d6f756e74206d757374206265203e2030000000000000000000006044820152606401610358565b6020820135156108aa576108aa6108816020840184612a5e565b6020840135604085013561089b6080870160608801612f72565b86608001358760a00135611863565b6020810135156108c4576108c461042b6020830183612a5e565b6108cd3461177e565b61091c846108de6020860186612a5e565b6108ee6040870160208801612a5e565b60408701356060880135608089013560a08a013561091260e08c0160c08d01612a5e565b8b60e00135611e5c565b50505050565b60008163ffffffff1611610992576040517f08c379a000000000000000000000000000000000000000000000000000000000815260206004820152601260248201527f746970506374206d757374206265203e203000000000000000000000000000006044820152606401610358565b600034116109fc576040517f08c379a000000000000000000000000000000000000000000000000000000000815260206004820152601a60248201527f6d7573742073656e642045544820746f20636f766572207469700000000000006044820152606401610358565b6000620f4240610a1263ffffffff841634613225565b610a1c91906131ec565b9050610a278161177e565b610a498484356020860135610a3f604088018861316e565b8860800135612164565b61091c61039f6080850160608601612a5e565b60008163ffffffff1611610acc576040517f08c379a000000000000000000000000000000000000000000000000000000000815260206004820152601260248201527f746970506374206d757374206265203e203000000000000000000000000000006044820152606401610358565b610b05610adc6020870187612a5e565b60208701356040880135610af660808a0160608b01612f72565b89608001358a60a00135611863565b610b278787356020890135610b1d60408b018b61316e565b8b60800135611ab8565b600084846000818110610b63577f4e487b7100000000000000000000000000000000000000000000000000000000600052603260045260246000fd5b9050602002016020810190610b789190612a5e565b6040517f70a0823100000000000000000000000000000000000000000000000000000000815230600482015290915060009073ffffffffffffffffffffffffffffffffffffffff8316906370a082319060240160206040518083038186803b158015610be357600080fd5b505afa158015610bf7573d6000803e3d6000fd5b505050506040513d601f19601f82011682018060405250810190610c1b9190612f0a565b90506000620f4240610c3363ffffffff861684613225565b610c3d91906131ec565b9050610c828a8289898080602002602001604051908101604052809392919081815260200183836020028082843760009201919091525050505060808d013589611baa565b610c968361075c60808c0160608d01612a5e565b50505050505050505050565b60003411610d0c576040517f08c379a000000000000000000000000000000000000000000000000000000000815260206004820152601660248201527f74697020616d6f756e74206d757374206265203e2030000000000000000000006044820152606401610358565b610d153461177e565b610d2561042b6020830183612a5e565b610d478383356020850135610d3d604087018761316e565b8760800135611ab8565b61049e610d57604084018461316e565b610d64604086018661316e565b9050818110610d9c577f4e487b7100000000000000000000000000000000000000000000000000000000600052603260045260246000fd5b9050602002016020810190610db19190612a5e565b61075c6080850160608601612a5e565b60008111610e2b576040517f08c379a000000000000000000000000000000000000000000000000000000000815260206004820152601660248201527f74697020616d6f756e74206d757374206265203e2030000000000000000000006044820152606401610358565b610e398160608401356131d4565b341015610ec8576040517f08c379a000000000000000000000000000000000000000000000000000000000815260206004820152602660248201527f6d7573742073656e642045544820746f20636f76657220746970202b206c697160448201527f75696469747900000000000000000000000000000000000000000000000000006064820152608401610358565b610ed18161177e565b61049e83610ee26020850185612a5e565b60408501356060860135608087013560a0880135610f0660e08a0160c08b01612a5e565b8960e001356121d9565b60008111610f7a576040517f08c379a000000000000000000000000000000000000000000000000000000000815260206004820152601660248201527f74697020616d6f756e74206d757374206265203e2030000000000000000000006044820152606401610358565b80341015610fe4576040517f08c379a000000000000000000000000000000000000000000000000000000000815260206004820152601a60248201527f6d7573742073656e642045544820746f20636f766572207469700000000000006044820152606401610358565b610fed8161177e565b6105488383356020850135611005604087018761316e565b8760800135612164565b60003411611079576040517f08c379a000000000000000000000000000000000000000000000000000000000815260206004820152601660248201527f74697020616d6f756e74206d757374206265203e2030000000000000000000006044820152606401610358565b6110823461177e565b6103a4826110936020840184612a5e565b6110a36040850160208601612a5e565b60408501356060860135608087013560a08801356110c760e08a0160c08b01612a5e565b8960e00135611e5c565b6000341161113b576040517f08c379a000000000000000000000000000000000000000000000000000000000815260206004820152601660248201527f74697020616d6f756e74206d757374206265203e2030000000000000000000006044820152606401610358565b6111443461177e565b61115461042b6020830183612a5e565b61049e836111656020850185612a5e565b6111756040860160208701612a5e565b6111856060870160408801612a5e565b6060870135608088013560a08901356111a460e08b0160c08c01612a5e565b8a60e00135612321565b60003411611218576040517f08c379a000000000000000000000000000000000000000000000000000000000815260206004820152601660248201527f74697020616d6f756e74206d757374206265203e2030000000000000000000006044820152606401610358565b6112213461177e565b6112438282356020840135611239604086018661316e565b8660800135611ab8565b6103a4611253604083018361316e565b611260604085018561316e565b9050818110611298577f4e487b7100000000000000000000000000000000000000000000000000000000600052603260045260246000fd5b90506020020160208101906112ad9190612a5e565b61075c6080840160608501612a5e565b60003411611327576040517f08c379a000000000000000000000000000000000000000000000000000000000815260206004820152601660248201527f74697020616d6f756e74206d757374206265203e2030000000000000000000006044820152606401610358565b6113303461177e565b6103a4826113416020840184612a5e565b6113516040850160208601612a5e565b6060850135608086013560a087013561137060e0890160c08a01612a5e565b8860e00135611909565b60008163ffffffff16116113ea576040517f08c379a000000000000000000000000000000000000000000000000000000000815260206004820152601260248201527f746970506374206d757374206265203e203000000000000000000000000000006044820152606401610358565b6113fa6108816020840184612a5e565b61141c8484356020860135611412604088018861316e565b8860800135611651565b610a4981611dbf565b6000341161148f576040517f08c379a000000000000000000000000000000000000000000000000000000000815260206004820152601660248201527f74697020616d6f756e74206d757374206265203e2030000000000000000000006044820152606401610358565b6114983461177e565b6103a4826114a96020840184612a5e565b6114b96040850160208601612a5e565b6114c96060860160408701612a5e565b6060860135608087013560a08801356114e860e08a0160c08b01612a5e565b8960e00135612321565b6000811161155c576040517f08c379a000000000000000000000000000000000000000000000000000000000815260206004820152601660248201527f74697020616d6f756e74206d757374206265203e2030000000000000000000006044820152606401610358565b61156a8160608501356131d4565b3410156115f9576040517f08c379a000000000000000000000000000000000000000000000000000000000815260206004820152602660248201527f6d7573742073656e642045544820746f20636f76657220746970202b206c697160448201527f75696469747900000000000000000000000000000000000000000000000000006064820152608401610358565b6116096108816020840184612a5e565b6116128161177e565b61091c846116236020860186612a5e565b60408601356060870135608088013560a089013561164760e08b0160c08c01612a5e565b8a60e001356121d9565b60008383600081811061168d577f4e487b7100000000000000000000000000000000000000000000000000000000600052603260045260246000fd5b90506020020160208101906116a29190612a5e565b90506116c673ffffffffffffffffffffffffffffffffffffffff821633308961247e565b6116e773ffffffffffffffffffffffffffffffffffffffff8216888861255a565b6040517f791ac94700000000000000000000000000000000000000000000000000000000815273ffffffffffffffffffffffffffffffffffffffff88169063791ac9479061174390899089908990899030908a90600401613099565b600060405180830381600087803b15801561175d57600080fd5b505af1158015611771573d6000803e3d6000fd5b5050505050505050505050565b735312b0d160e16feeeec13437a0053009e756428773ffffffffffffffffffffffffffffffffffffffff16632755cd2d826040518263ffffffff1660e01b81526004016000604051808303818588803b1580156117da57600080fd5b505af11580156117ee573d6000803e3d6000fd5b505050505050565b60008173ffffffffffffffffffffffffffffffffffffffff164760405160006040518083038185875af1925050503d8060008114611850576040519150601f19603f3d011682016040523d82523d6000602084013e611855565b606091505b50509050806103a457600080fd5b6040517fd505accf000000000000000000000000000000000000000000000000000000008152336004820152306024820152604481018690526064810185905260ff8416608482015260a4810183905260c4810182905273ffffffffffffffffffffffffffffffffffffffff87169063d505accf9060e401600060405180830381600087803b1580156118f557600080fd5b505af1158015610c96573d6000803e3d6000fd5b61192b73ffffffffffffffffffffffffffffffffffffffff881633308861247e565b61194c73ffffffffffffffffffffffffffffffffffffffff8816898761255a565b6040517f02751cec00000000000000000000000000000000000000000000000000000000815273ffffffffffffffffffffffffffffffffffffffff8781166004830152602482018790526044820186905260648201859052838116608483015260a4820183905260009182918b16906302751cec9060c4016040805180830381600087803b1580156119dd57600080fd5b505af11580156119f1573d6000803e3d6000fd5b505050506040513d601f19601f82011682018060405250810190611a159190612f22565b909250905087611a3c73ffffffffffffffffffffffffffffffffffffffff82163385612667565b60003373ffffffffffffffffffffffffffffffffffffffff16836040515b60006040518083038185875af1925050503d8060008114611a97576040519150601f19603f3d011682016040523d82523d6000602084013e611a9c565b606091505b5050905080611aaa57600080fd5b505050505050505050505050565b600083836000818110611af4577f4e487b7100000000000000000000000000000000000000000000000000000000600052603260045260246000fd5b9050602002016020810190611b099190612a5e565b9050611b2d73ffffffffffffffffffffffffffffffffffffffff821633308961247e565b611b4e73ffffffffffffffffffffffffffffffffffffffff8216888861255a565b6040517f5c11d79500000000000000000000000000000000000000000000000000000000815273ffffffffffffffffffffffffffffffffffffffff881690635c11d7959061174390899089908990899030908a90600401613099565b611c16858585600081518110611be9577f4e487b7100000000000000000000000000000000000000000000000000000000600052603260045260246000fd5b602002602001015173ffffffffffffffffffffffffffffffffffffffff1661255a9092919063ffffffff16565b6040517f791ac94700000000000000000000000000000000000000000000000000000000815273ffffffffffffffffffffffffffffffffffffffff86169063791ac94790611c7090879085908890309089906004016130e4565b600060405180830381600087803b158015611c8a57600080fd5b505af1158015611c9e573d6000803e3d6000fd5b50505050735312b0d160e16feeeec13437a0053009e756428773ffffffffffffffffffffffffffffffffffffffff16632755cd2d476040518263ffffffff1660e01b81526004016000604051808303818588803b1580156118f557600080fd5b6040517f70a082310000000000000000000000000000000000000000000000000000000081523060048201526103a490829073ffffffffffffffffffffffffffffffffffffffff8516906370a082319060240160206040518083038186803b158015611d6957600080fd5b505afa158015611d7d573d6000803e3d6000fd5b505050506040513d601f19601f82011682018060405250810190611da19190612f0a565b73ffffffffffffffffffffffffffffffffffffffff85169190612667565b476000620f4240611dd663ffffffff851684613225565b611de091906131ec565b9050735312b0d160e16feeeec13437a0053009e756428773ffffffffffffffffffffffffffffffffffffffff16632755cd2d826040518263ffffffff1660e01b81526004016000604051808303818588803b158015611e3e57600080fd5b505af1158015611e52573d6000803e3d6000fd5b5050505050505050565b8787611e8073ffffffffffffffffffffffffffffffffffffffff831633308b61247e565b611ea173ffffffffffffffffffffffffffffffffffffffff83168c8a61255a565b611ec373ffffffffffffffffffffffffffffffffffffffff821633308a61247e565b611ee473ffffffffffffffffffffffffffffffffffffffff82168c8961255a565b6040517fe8e3370000000000000000000000000000000000000000000000000000000000815273ffffffffffffffffffffffffffffffffffffffff8b811660048301528a81166024830152604482018a9052606482018990526084820188905260a4820187905285811660c483015260e4820185905260009182918e169063e8e337009061010401606060405180830381600087803b158015611f8657600080fd5b505af1158015611f9a573d6000803e3d6000fd5b505050506040513d601f19601f82011682018060405250810190611fbe9190612f45565b5091509150818a111561208c576040517f70a0823100000000000000000000000000000000000000000000000000000000815230600482015261208c90339073ffffffffffffffffffffffffffffffffffffffff8716906370a082319060240160206040518083038186803b15801561203657600080fd5b505afa15801561204a573d6000803e3d6000fd5b505050506040513d601f19601f8201168201806040525081019061206e9190612f0a565b73ffffffffffffffffffffffffffffffffffffffff87169190612667565b80891115612155576040517f70a0823100000000000000000000000000000000000000000000000000000000815230600482015261215590339073ffffffffffffffffffffffffffffffffffffffff8616906370a082319060240160206040518083038186803b1580156120ff57600080fd5b505afa158015612113573d6000803e3d6000fd5b505050506040513d601f19601f820116820180604052508101906121379190612f0a565b73ffffffffffffffffffffffffffffffffffffffff86169190612667565b50505050505050505050505050565b6040517fb6f9de9500000000000000000000000000000000000000000000000000000000815273ffffffffffffffffffffffffffffffffffffffff87169063b6f9de959087906121c09088908890889030908990600401613055565b6000604051808303818588803b15801561175d57600080fd5b866121fc73ffffffffffffffffffffffffffffffffffffffff821633308a61247e565b61221d73ffffffffffffffffffffffffffffffffffffffff82168a8961255a565b6040517ff305d71900000000000000000000000000000000000000000000000000000000815273ffffffffffffffffffffffffffffffffffffffff8981166004830152602482018990526044820187905260648201869052848116608483015260a4820184905260009182918c169063f305d719908a9060c4016060604051808303818588803b1580156122b057600080fd5b505af11580156122c4573d6000803e3d6000fd5b50505050506040513d601f19601f820116820180604052508101906122e99190612f45565b5091509150818911156123045761230433612137848c613262565b8088111561177157600033612319838b613262565b604051611a5a565b61234373ffffffffffffffffffffffffffffffffffffffff891633308861247e565b61236473ffffffffffffffffffffffffffffffffffffffff89168a8761255a565b6040517fbaa2abde00000000000000000000000000000000000000000000000000000000815273ffffffffffffffffffffffffffffffffffffffff8881166004830152878116602483015260448201879052606482018690526084820185905283811660a483015260c4820183905260009182918c169063baa2abde9060e4016040805180830381600087803b1580156123fd57600080fd5b505af1158015612411573d6000803e3d6000fd5b505050506040513d601f19601f820116820180604052508101906124359190612f22565b9092509050888861245d73ffffffffffffffffffffffffffffffffffffffff83163386612667565b61215573ffffffffffffffffffffffffffffffffffffffff82163385612667565b60405173ffffffffffffffffffffffffffffffffffffffff8085166024830152831660448201526064810182905261091c9085907f23b872dd00000000000000000000000000000000000000000000000000000000906084015b604080517fffffffffffffffffffffffffffffffffffffffffffffffffffffffffffffffe08184030181529190526020810180517bffffffffffffffffffffffffffffffffffffffffffffffffffffffff167fffffffff00000000000000000000000000000000000000000000000000000000909316929092179091526126bd565b6040517fdd62ed3e00000000000000000000000000000000000000000000000000000000815230600482015273ffffffffffffffffffffffffffffffffffffffff8381166024830152600091839186169063dd62ed3e9060440160206040518083038186803b1580156125cc57600080fd5b505afa1580156125e0573d6000803e3d6000fd5b505050506040513d601f19601f820116820180604052508101906126049190612f0a565b61260e91906131d4565b60405173ffffffffffffffffffffffffffffffffffffffff851660248201526044810182905290915061091c9085907f095ea7b300000000000000000000000000000000000000000000000000000000906064016124d8565b60405173ffffffffffffffffffffffffffffffffffffffff831660248201526044810182905261049e9084907fa9059cbb00000000000000000000000000000000000000000000000000000000906064016124d8565b600061271f826040518060400160405280602081526020017f5361666545524332303a206c6f772d6c6576656c2063616c6c206661696c65648152508573ffffffffffffffffffffffffffffffffffffffff166127c99092919063ffffffff16565b80519091501561049e578080602001905181019061273d9190612a7a565b61049e576040517f08c379a000000000000000000000000000000000000000000000000000000000815260206004820152602a60248201527f5361666545524332303a204552433230206f7065726174696f6e20646964206e60448201527f6f742073756363656564000000000000000000000000000000000000000000006064820152608401610358565b60606127d884846000856127e2565b90505b9392505050565b606082471015612874576040517f08c379a000000000000000000000000000000000000000000000000000000000815260206004820152602660248201527f416464726573733a20696e73756666696369656e742062616c616e636520666f60448201527f722063616c6c00000000000000000000000000000000000000000000000000006064820152608401610358565b61287d85612969565b6128e3576040517f08c379a000000000000000000000000000000000000000000000000000000000815260206004820152601d60248201527f416464726573733a2063616c6c20746f206e6f6e2d636f6e74726163740000006044820152606401610358565b6000808673ffffffffffffffffffffffffffffffffffffffff16858760405161290c9190612fe8565b60006040518083038185875af1925050503d8060008114612949576040519150601f19603f3d011682016040523d82523d6000602084013e61294e565b606091505b509150915061295e828286612973565b979650505050505050565b803b15155b919050565b606083156129825750816127db565b8251156129925782518084602001fd5b816040517f08c379a00000000000000000000000000000000000000000000000000000000081526004016103589190613004565b60008083601f8401126129d7578182fd5b50813567ffffffffffffffff8111156129ee578182fd5b6020830191508360208260051b8501011115612a0957600080fd5b9250929050565b60006101008284031215612a22578081fd5b50919050565b600060c08284031215612a22578081fd5b600060a08284031215612a22578081fd5b803563ffffffff8116811461296e57600080fd5b600060208284031215612a6f578081fd5b81356127db816132d4565b600060208284031215612a8b578081fd5b815180151581146127db578182fd5b6000806101208385031215612aad578081fd5b8235612ab8816132d4565b9150612ac78460208501612a10565b90509250929050565b6000806000806102a08587031215612ae6578182fd5b8435612af1816132d4565b9350612b008660208701612a10565b9250612b10866101208701612a28565b9150612b20866101e08701612a28565b905092959194509250565b6000806000806102008587031215612b41578384fd5b8435612b4c816132d4565b9350612b5b8660208701612a10565b9250612b6b866101208701612a28565b939692955092936101e00135925050565b60008060006101408486031215612b91578283fd5b8335612b9c816132d4565b9250612bab8560208601612a10565b915061012084013590509250925092565b6000806101208385031215612aad578182fd5b60008060006101e08486031215612be4578283fd5b8335612bef816132d4565b9250612bfe8560208601612a10565b9150612c0e856101208601612a28565b90509250925092565b60008060408385031215612c29578081fd5b8235612c34816132d4565b9150602083013567ffffffffffffffff811115612c4f578182fd5b612c5b85828601612a39565b9150509250929050565b60008060008060008060a08789031215612c7d578384fd5b8635612c88816132d4565b9550602087013567ffffffffffffffff80821115612ca4578586fd5b612cb08a838b01612a39565b96506040890135915080821115612cc5578586fd5b50612cd289828a016129c6565b90955093505060608701359150612ceb60808801612a4a565b90509295509295509295565b60008060006101008486031215612d0c578081fd5b8335612d17816132d4565b9250602084013567ffffffffffffffff811115612d32578182fd5b612d3e86828701612a39565b925050612c0e8560408601612a28565b6000806000806000806000610160888a031215612d69578485fd5b8735612d74816132d4565b9650602088013567ffffffffffffffff80821115612d90578687fd5b612d9c8b838c01612a39565b9750612dab8b60408c01612a28565b96506101008a0135915080821115612dc1578283fd5b50612dce8a828b016129c6565b9095509350506101208801359150612de96101408901612a4a565b905092959891949750929550565b6000806000806101208587031215612e0d578182fd5b8435612e18816132d4565b9350602085013567ffffffffffffffff811115612e33578283fd5b612e3f87828801612a39565b935050612e4f8660408701612a28565b9150612b206101008601612a4a565b600080600060608486031215612e72578081fd5b8335612e7d816132d4565b9250602084013567ffffffffffffffff811115612e98578182fd5b612ea486828701612a39565b925050604084013590509250925092565b600080600060608486031215612ec9578081fd5b8335612ed4816132d4565b9250602084013567ffffffffffffffff811115612eef578182fd5b612efb86828701612a39565b925050612c0e60408501612a4a565b600060208284031215612f1b578081fd5b5051919050565b60008060408385031215612f34578182fd5b505080516020909101519092909150565b600080600060608486031215612f59578081fd5b8351925060208401519150604084015190509250925092565b600060208284031215612f83578081fd5b813560ff811681146127db578182fd5b60008284526020808501945082825b85811015612fdd578135612fb5816132d4565b73ffffffffffffffffffffffffffffffffffffffff1687529582019590820190600101612fa2565b509495945050505050565b60008251612ffa818460208701613279565b9190910192915050565b6000602082528251806020840152613023816040850160208701613279565b601f017fffffffffffffffffffffffffffffffffffffffffffffffffffffffffffffffe0169190910160400192915050565b60008682526080602083015261306f608083018688612f93565b73ffffffffffffffffffffffffffffffffffffffff94909416604083015250606001529392505050565b600087825286602083015260a060408301526130b960a083018688612f93565b73ffffffffffffffffffffffffffffffffffffffff9490941660608301525060800152949350505050565b600060a082018783526020878185015260a0604085015281875180845260c0860191508289019350845b8181101561314057845173ffffffffffffffffffffffffffffffffffffffff168352938301939183019160010161310e565b505073ffffffffffffffffffffffffffffffffffffffff969096166060850152505050608001529392505050565b60008083357fffffffffffffffffffffffffffffffffffffffffffffffffffffffffffffffe18436030181126131a2578283fd5b83018035915067ffffffffffffffff8211156131bc578283fd5b6020019150600581901b3603821315612a0957600080fd5b600082198211156131e7576131e76132a5565b500190565b600082613220577f4e487b710000000000000000000000000000000000000000000000000000000081526012600452602481fd5b500490565b6000817fffffffffffffffffffffffffffffffffffffffffffffffffffffffffffffffff048311821515161561325d5761325d6132a5565b500290565b600082821015613274576132746132a5565b500390565b60005b8381101561329457818101518382015260200161327c565b8381111561091c5750506000910152565b7f4e487b7100000000000000000000000000000000000000000000000000000000600052601160045260246000fd5b73ffffffffffffffffffffffffffffffffffffffff811681146132f657600080fd5b5056fea264697066735822122055dcef5522aa087429751bdd32dbc2afbde503b29631293f90d384a1e1ea1d3f64736f6c63430008030033",
  "devdoc": {
    "details": "Allows Uniswap V2 Router-compliant trades to be paid via % tips instead of gas",
    "kind": "dev",
    "methods": {
      "addLiquidityAndTipAmount(address,(address,address,uint256,uint256,uint256,uint256,address,uint256))": {
        "params": {
          "liquidity": "Liquidity details",
          "router": "Uniswap V2-compliant Router contract"
        }
      },
      "addLiquidityETHAndTipAmount(address,(address,address,uint256,uint256,uint256,uint256,address,uint256),uint256)": {
        "params": {
          "liquidity": "Liquidity details",
          "router": "Uniswap V2-compliant Router contract",
          "tipAmount": "tip amount"
        }
      },
      "addLiquidityETHWithPermitAndTipAmount(address,(address,address,uint256,uint256,uint256,uint256,address,uint256),(address,uint256,uint256,uint8,bytes32,bytes32),uint256)": {
        "params": {
          "liquidity": "Liquidity details",
          "router": "Uniswap V2-compliant Router contract",
          "tipAmount": "tip amount"
        }
      },
      "addLiquidityWithPermitAndTipAmount(address,(address,address,uint256,uint256,uint256,uint256,address,uint256),(address,uint256,uint256,uint8,bytes32,bytes32),(address,uint256,uint256,uint8,bytes32,bytes32))": {
        "params": {
          "liquidity": "Liquidity details",
          "permitA": "Permit details for token A",
          "permitB": "Permit details for token B",
          "router": "Uniswap V2-compliant Router contract"
        }
      },
      "removeLiquidityAndTipAmount(address,(address,address,address,uint256,uint256,uint256,address,uint256))": {
        "params": {
          "liquidity": "Liquidity details",
          "router": "Uniswap V2-compliant Router contract"
        }
      },
      "removeLiquidityETHAndTipAmount(address,(address,address,address,uint256,uint256,uint256,address,uint256))": {
        "params": {
          "liquidity": "Liquidity details",
          "router": "Uniswap V2-compliant Router contract"
        }
      },
      "removeLiquidityETHWithPermitAndTipAmount(address,(address,address,address,uint256,uint256,uint256,address,uint256),(address,uint256,uint256,uint8,bytes32,bytes32))": {
        "params": {
          "liquidity": "Liquidity details",
          "permit": "Permit details",
          "router": "Uniswap V2-compliant Router contract"
        }
      },
      "removeLiquidityWithPermitAndTipAmount(address,(address,address,address,uint256,uint256,uint256,address,uint256),(address,uint256,uint256,uint8,bytes32,bytes32))": {
        "params": {
          "liquidity": "Liquidity details",
          "permit": "Permit details",
          "router": "Uniswap V2-compliant Router contract"
        }
      },
      "swapETHForTokensWithTipAmount(address,(uint256,uint256,address[],address,uint256),uint256)": {
        "params": {
          "router": "Uniswap V2-compliant Router contract",
          "tipAmount": "amount of ETH to pay as tip",
          "trade": "Trade details"
        }
      },
      "swapETHForTokensWithTipPct(address,(uint256,uint256,address[],address,uint256),uint32)": {
        "params": {
          "router": "Uniswap V2-compliant Router contract",
          "tipPct": "% of ETH to pay as tip",
          "trade": "Trade details"
        }
      },
      "swapTokensForETHAndTipAmount(address,(uint256,uint256,address[],address,uint256))": {
        "params": {
          "router": "Uniswap V2-compliant Router contract",
          "trade": "Trade details"
        }
      },
      "swapTokensForETHAndTipPct(address,(uint256,uint256,address[],address,uint256),uint32)": {
        "params": {
          "router": "Uniswap V2-compliant Router contract",
          "tipPct": "% of resulting ETH to pay as tip",
          "trade": "Trade details"
        }
      },
      "swapTokensForETHWithPermitAndTipAmount(address,(uint256,uint256,address[],address,uint256),(address,uint256,uint256,uint8,bytes32,bytes32))": {
        "params": {
          "permit": "Permit details",
          "router": "Uniswap V2-compliant Router contract",
          "trade": "Trade details"
        }
      },
      "swapTokensForETHWithPermitAndTipPct(address,(uint256,uint256,address[],address,uint256),(address,uint256,uint256,uint8,bytes32,bytes32),uint32)": {
        "params": {
          "permit": "Permit details",
          "router": "Uniswap V2-compliant Router contract",
          "tipPct": "% of resulting ETH to pay as tip",
          "trade": "Trade details"
        }
      },
      "swapTokensForTokensWithPermitAndTipAmount(address,(uint256,uint256,address[],address,uint256),(address,uint256,uint256,uint8,bytes32,bytes32))": {
        "params": {
          "permit": "Permit details",
          "router": "Uniswap V2-compliant Router contract",
          "trade": "Trade details"
        }
      },
      "swapTokensForTokensWithPermitAndTipPct(address,(uint256,uint256,address[],address,uint256),(address,uint256,uint256,uint8,bytes32,bytes32),address[],uint256,uint32)": {
        "params": {
          "minEth": "ETH minimum for tip conversion",
          "pathToEth": "Path to ETH for tip",
          "permit": "Permit details",
          "router": "Uniswap V2-compliant Router contract",
          "tipPct": "% of resulting tokens to pay as tip",
          "trade": "Trade details"
        }
      },
      "swapTokensForTokensWithTipAmount(address,(uint256,uint256,address[],address,uint256))": {
        "params": {
          "router": "Uniswap V2-compliant Router contract",
          "trade": "Trade details"
        }
      },
      "swapTokensForTokensWithTipPct(address,(uint256,uint256,address[],address,uint256),address[],uint256,uint32)": {
        "params": {
          "minEth": "ETH minimum for tip conversion",
          "pathToEth": "Path to ETH for tip",
          "router": "Uniswap V2-compliant Router contract",
          "tipPct": "% of resulting tokens to pay as tip",
          "trade": "Trade details"
        }
      }
    },
    "title": "ArcherSwapRouter",
    "version": 1
  },
  "userdoc": {
    "kind": "user",
    "methods": {
      "addLiquidityAndTipAmount(address,(address,address,uint256,uint256,uint256,uint256,address,uint256))": {
        "notice": "Add liquidity to token pair"
      },
      "addLiquidityETHAndTipAmount(address,(address,address,uint256,uint256,uint256,uint256,address,uint256),uint256)": {
        "notice": "Add liquidity to ETH>Token pair"
      },
      "addLiquidityETHWithPermitAndTipAmount(address,(address,address,uint256,uint256,uint256,uint256,address,uint256),(address,uint256,uint256,uint8,bytes32,bytes32),uint256)": {
        "notice": "Add liquidity to ETH>Token pair"
      },
      "addLiquidityWithPermitAndTipAmount(address,(address,address,uint256,uint256,uint256,uint256,address,uint256),(address,uint256,uint256,uint8,bytes32,bytes32),(address,uint256,uint256,uint8,bytes32,bytes32))": {
        "notice": "Add liquidity to pair, using permit for approvals"
      },
      "removeLiquidityAndTipAmount(address,(address,address,address,uint256,uint256,uint256,address,uint256))": {
        "notice": "Remove liquidity from token>token pair"
      },
      "removeLiquidityETHAndTipAmount(address,(address,address,address,uint256,uint256,uint256,address,uint256))": {
        "notice": "Remove liquidity from ETH>token pair"
      },
      "removeLiquidityETHWithPermitAndTipAmount(address,(address,address,address,uint256,uint256,uint256,address,uint256),(address,uint256,uint256,uint8,bytes32,bytes32))": {
        "notice": "Remove liquidity from ETH>token pair, using permit for approval"
      },
      "removeLiquidityWithPermitAndTipAmount(address,(address,address,address,uint256,uint256,uint256,address,uint256),(address,uint256,uint256,uint8,bytes32,bytes32))": {
        "notice": "Remove liquidity from token>token pair, using permit for approval"
      },
      "swapETHForTokensWithTipAmount(address,(uint256,uint256,address[],address,uint256),uint256)": {
        "notice": "Swap ETH for tokens and pay % of ETH input as tip"
      },
      "swapETHForTokensWithTipPct(address,(uint256,uint256,address[],address,uint256),uint32)": {
        "notice": "Swap ETH for tokens and pay % of ETH input as tip"
      },
      "swapTokensForETHAndTipAmount(address,(uint256,uint256,address[],address,uint256))": {
        "notice": "Swap tokens for ETH and pay amount of ETH as tip"
      },
      "swapTokensForETHAndTipPct(address,(uint256,uint256,address[],address,uint256),uint32)": {
        "notice": "Swap tokens for ETH and pay % of ETH as tip"
      },
      "swapTokensForETHWithPermitAndTipAmount(address,(uint256,uint256,address[],address,uint256),(address,uint256,uint256,uint8,bytes32,bytes32))": {
        "notice": "Swap tokens for ETH and pay amount of ETH as tip, using permit for approval"
      },
      "swapTokensForETHWithPermitAndTipPct(address,(uint256,uint256,address[],address,uint256),(address,uint256,uint256,uint8,bytes32,bytes32),uint32)": {
        "notice": "Swap tokens for ETH and pay % of ETH as tip, using permit for approval"
      },
      "swapTokensForTokensWithPermitAndTipAmount(address,(uint256,uint256,address[],address,uint256),(address,uint256,uint256,uint8,bytes32,bytes32))": {
        "notice": "Swap tokens for tokens and pay ETH amount as tip"
      },
      "swapTokensForTokensWithPermitAndTipPct(address,(uint256,uint256,address[],address,uint256),(address,uint256,uint256,uint8,bytes32,bytes32),address[],uint256,uint32)": {
        "notice": "Swap tokens for tokens and pay % of tokens as tip, using permit for approval"
      },
      "swapTokensForTokensWithTipAmount(address,(uint256,uint256,address[],address,uint256))": {
        "notice": "Swap tokens for tokens and pay ETH amount as tip"
      },
      "swapTokensForTokensWithTipPct(address,(uint256,uint256,address[],address,uint256),address[],uint256,uint32)": {
        "notice": "Swap tokens for tokens and pay % of tokens as tip"
      },
      "tipJar()": {
        "notice": "TipJar proxy"
      }
    },
    "version": 1
  },
  "storageLayout": {
    "storage": [],
    "types": null
  }
}