{
  "address": "0x14C2C90e876aD185Ad465459aAFE0c833E6CE987",
  "abi": [
    {
      "inputs": [
        {
          "internalType": "address",
          "name": "_tipJar",
          "type": "address"
        }
      ],
      "stateMutability": "nonpayable",
      "type": "constructor"
    },
    {
      "stateMutability": "payable",
      "type": "fallback"
    },
    {
      "inputs": [
        {
          "internalType": "contract IUniRouter",
          "name": "router",
          "type": "address"
        },
        {
          "components": [
            {
              "internalType": "address",
              "name": "tokenA",
              "type": "address"
            },
            {
              "internalType": "address",
              "name": "tokenB",
              "type": "address"
            },
            {
              "internalType": "uint256",
              "name": "amountADesired",
              "type": "uint256"
            },
            {
              "internalType": "uint256",
              "name": "amountBDesired",
              "type": "uint256"
            },
            {
              "internalType": "uint256",
              "name": "amountAMin",
              "type": "uint256"
            },
            {
              "internalType": "uint256",
              "name": "amountBMin",
              "type": "uint256"
            },
            {
              "internalType": "address",
              "name": "to",
              "type": "address"
            },
            {
              "internalType": "uint256",
              "name": "deadline",
              "type": "uint256"
            }
          ],
          "internalType": "struct ArcherSwapRouter.AddLiquidity",
          "name": "liquidity",
          "type": "tuple"
        }
      ],
      "name": "addLiquidityAndTipAmount",
      "outputs": [],
      "stateMutability": "payable",
      "type": "function"
    },
    {
      "inputs": [
        {
          "internalType": "contract IUniRouter",
          "name": "router",
          "type": "address"
        },
        {
          "components": [
            {
              "internalType": "address",
              "name": "tokenA",
              "type": "address"
            },
            {
              "internalType": "address",
              "name": "tokenB",
              "type": "address"
            },
            {
              "internalType": "uint256",
              "name": "amountADesired",
              "type": "uint256"
            },
            {
              "internalType": "uint256",
              "name": "amountBDesired",
              "type": "uint256"
            },
            {
              "internalType": "uint256",
              "name": "amountAMin",
              "type": "uint256"
            },
            {
              "internalType": "uint256",
              "name": "amountBMin",
              "type": "uint256"
            },
            {
              "internalType": "address",
              "name": "to",
              "type": "address"
            },
            {
              "internalType": "uint256",
              "name": "deadline",
              "type": "uint256"
            }
          ],
          "internalType": "struct ArcherSwapRouter.AddLiquidity",
          "name": "liquidity",
          "type": "tuple"
        },
        {
          "internalType": "uint256",
          "name": "tipAmount",
          "type": "uint256"
        }
      ],
      "name": "addLiquidityETHAndTipAmount",
      "outputs": [],
      "stateMutability": "payable",
      "type": "function"
    },
    {
      "inputs": [
        {
          "internalType": "contract IUniRouter",
          "name": "router",
          "type": "address"
        },
        {
          "components": [
            {
              "internalType": "address",
              "name": "tokenA",
              "type": "address"
            },
            {
              "internalType": "address",
              "name": "tokenB",
              "type": "address"
            },
            {
              "internalType": "uint256",
              "name": "amountADesired",
              "type": "uint256"
            },
            {
              "internalType": "uint256",
              "name": "amountBDesired",
              "type": "uint256"
            },
            {
              "internalType": "uint256",
              "name": "amountAMin",
              "type": "uint256"
            },
            {
              "internalType": "uint256",
              "name": "amountBMin",
              "type": "uint256"
            },
            {
              "internalType": "address",
              "name": "to",
              "type": "address"
            },
            {
              "internalType": "uint256",
              "name": "deadline",
              "type": "uint256"
            }
          ],
          "internalType": "struct ArcherSwapRouter.AddLiquidity",
          "name": "liquidity",
          "type": "tuple"
        },
        {
          "components": [
            {
              "internalType": "contract IERC20Extended",
              "name": "token",
              "type": "address"
            },
            {
              "internalType": "uint256",
              "name": "amount",
              "type": "uint256"
            },
            {
              "internalType": "uint256",
              "name": "deadline",
              "type": "uint256"
            },
            {
              "internalType": "uint8",
              "name": "v",
              "type": "uint8"
            },
            {
              "internalType": "bytes32",
              "name": "r",
              "type": "bytes32"
            },
            {
              "internalType": "bytes32",
              "name": "s",
              "type": "bytes32"
            }
          ],
          "internalType": "struct ArcherSwapRouter.Permit",
          "name": "permit",
          "type": "tuple"
        },
        {
          "internalType": "uint256",
          "name": "tipAmount",
          "type": "uint256"
        }
      ],
      "name": "addLiquidityETHWithPermitAndTipAmount",
      "outputs": [],
      "stateMutability": "payable",
      "type": "function"
    },
    {
      "inputs": [
        {
          "internalType": "contract IUniRouter",
          "name": "router",
          "type": "address"
        },
        {
          "components": [
            {
              "internalType": "address",
              "name": "tokenA",
              "type": "address"
            },
            {
              "internalType": "address",
              "name": "tokenB",
              "type": "address"
            },
            {
              "internalType": "uint256",
              "name": "amountADesired",
              "type": "uint256"
            },
            {
              "internalType": "uint256",
              "name": "amountBDesired",
              "type": "uint256"
            },
            {
              "internalType": "uint256",
              "name": "amountAMin",
              "type": "uint256"
            },
            {
              "internalType": "uint256",
              "name": "amountBMin",
              "type": "uint256"
            },
            {
              "internalType": "address",
              "name": "to",
              "type": "address"
            },
            {
              "internalType": "uint256",
              "name": "deadline",
              "type": "uint256"
            }
          ],
          "internalType": "struct ArcherSwapRouter.AddLiquidity",
          "name": "liquidity",
          "type": "tuple"
        },
        {
          "components": [
            {
              "internalType": "contract IERC20Extended",
              "name": "token",
              "type": "address"
            },
            {
              "internalType": "uint256",
              "name": "amount",
              "type": "uint256"
            },
            {
              "internalType": "uint256",
              "name": "deadline",
              "type": "uint256"
            },
            {
              "internalType": "uint8",
              "name": "v",
              "type": "uint8"
            },
            {
              "internalType": "bytes32",
              "name": "r",
              "type": "bytes32"
            },
            {
              "internalType": "bytes32",
              "name": "s",
              "type": "bytes32"
            }
          ],
          "internalType": "struct ArcherSwapRouter.Permit",
          "name": "permitA",
          "type": "tuple"
        },
        {
          "components": [
            {
              "internalType": "contract IERC20Extended",
              "name": "token",
              "type": "address"
            },
            {
              "internalType": "uint256",
              "name": "amount",
              "type": "uint256"
            },
            {
              "internalType": "uint256",
              "name": "deadline",
              "type": "uint256"
            },
            {
              "internalType": "uint8",
              "name": "v",
              "type": "uint8"
            },
            {
              "internalType": "bytes32",
              "name": "r",
              "type": "bytes32"
            },
            {
              "internalType": "bytes32",
              "name": "s",
              "type": "bytes32"
            }
          ],
          "internalType": "struct ArcherSwapRouter.Permit",
          "name": "permitB",
          "type": "tuple"
        }
      ],
      "name": "addLiquidityWithPermitAndTipAmount",
      "outputs": [],
      "stateMutability": "payable",
      "type": "function"
    },
    {
      "inputs": [
        {
          "internalType": "contract IUniRouter",
          "name": "router",
          "type": "address"
        },
        {
          "components": [
            {
              "internalType": "contract IERC20Extended",
              "name": "lpToken",
              "type": "address"
            },
            {
              "internalType": "address",
              "name": "tokenA",
              "type": "address"
            },
            {
              "internalType": "address",
              "name": "tokenB",
              "type": "address"
            },
            {
              "internalType": "uint256",
              "name": "liquidity",
              "type": "uint256"
            },
            {
              "internalType": "uint256",
              "name": "amountAMin",
              "type": "uint256"
            },
            {
              "internalType": "uint256",
              "name": "amountBMin",
              "type": "uint256"
            },
            {
              "internalType": "address",
              "name": "to",
              "type": "address"
            },
            {
              "internalType": "uint256",
              "name": "deadline",
              "type": "uint256"
            }
          ],
          "internalType": "struct ArcherSwapRouter.RemoveLiquidity",
          "name": "liquidity",
          "type": "tuple"
        }
      ],
      "name": "removeLiquidityAndTipAmount",
      "outputs": [],
      "stateMutability": "payable",
      "type": "function"
    },
    {
      "inputs": [
        {
          "internalType": "contract IUniRouter",
          "name": "router",
          "type": "address"
        },
        {
          "components": [
            {
              "internalType": "contract IERC20Extended",
              "name": "lpToken",
              "type": "address"
            },
            {
              "internalType": "address",
              "name": "tokenA",
              "type": "address"
            },
            {
              "internalType": "address",
              "name": "tokenB",
              "type": "address"
            },
            {
              "internalType": "uint256",
              "name": "liquidity",
              "type": "uint256"
            },
            {
              "internalType": "uint256",
              "name": "amountAMin",
              "type": "uint256"
            },
            {
              "internalType": "uint256",
              "name": "amountBMin",
              "type": "uint256"
            },
            {
              "internalType": "address",
              "name": "to",
              "type": "address"
            },
            {
              "internalType": "uint256",
              "name": "deadline",
              "type": "uint256"
            }
          ],
          "internalType": "struct ArcherSwapRouter.RemoveLiquidity",
          "name": "liquidity",
          "type": "tuple"
        }
      ],
      "name": "removeLiquidityETHAndTipAmount",
      "outputs": [],
      "stateMutability": "payable",
      "type": "function"
    },
    {
      "inputs": [
        {
          "internalType": "contract IUniRouter",
          "name": "router",
          "type": "address"
        },
        {
          "components": [
            {
              "internalType": "contract IERC20Extended",
              "name": "lpToken",
              "type": "address"
            },
            {
              "internalType": "address",
              "name": "tokenA",
              "type": "address"
            },
            {
              "internalType": "address",
              "name": "tokenB",
              "type": "address"
            },
            {
              "internalType": "uint256",
              "name": "liquidity",
              "type": "uint256"
            },
            {
              "internalType": "uint256",
              "name": "amountAMin",
              "type": "uint256"
            },
            {
              "internalType": "uint256",
              "name": "amountBMin",
              "type": "uint256"
            },
            {
              "internalType": "address",
              "name": "to",
              "type": "address"
            },
            {
              "internalType": "uint256",
              "name": "deadline",
              "type": "uint256"
            }
          ],
          "internalType": "struct ArcherSwapRouter.RemoveLiquidity",
          "name": "liquidity",
          "type": "tuple"
        },
        {
          "components": [
            {
              "internalType": "contract IERC20Extended",
              "name": "token",
              "type": "address"
            },
            {
              "internalType": "uint256",
              "name": "amount",
              "type": "uint256"
            },
            {
              "internalType": "uint256",
              "name": "deadline",
              "type": "uint256"
            },
            {
              "internalType": "uint8",
              "name": "v",
              "type": "uint8"
            },
            {
              "internalType": "bytes32",
              "name": "r",
              "type": "bytes32"
            },
            {
              "internalType": "bytes32",
              "name": "s",
              "type": "bytes32"
            }
          ],
          "internalType": "struct ArcherSwapRouter.Permit",
          "name": "permit",
          "type": "tuple"
        }
      ],
      "name": "removeLiquidityETHWithPermitAndTipAmount",
      "outputs": [],
      "stateMutability": "payable",
      "type": "function"
    },
    {
      "inputs": [
        {
          "internalType": "contract IUniRouter",
          "name": "router",
          "type": "address"
        },
        {
          "components": [
            {
              "internalType": "contract IERC20Extended",
              "name": "lpToken",
              "type": "address"
            },
            {
              "internalType": "address",
              "name": "tokenA",
              "type": "address"
            },
            {
              "internalType": "address",
              "name": "tokenB",
              "type": "address"
            },
            {
              "internalType": "uint256",
              "name": "liquidity",
              "type": "uint256"
            },
            {
              "internalType": "uint256",
              "name": "amountAMin",
              "type": "uint256"
            },
            {
              "internalType": "uint256",
              "name": "amountBMin",
              "type": "uint256"
            },
            {
              "internalType": "address",
              "name": "to",
              "type": "address"
            },
            {
              "internalType": "uint256",
              "name": "deadline",
              "type": "uint256"
            }
          ],
          "internalType": "struct ArcherSwapRouter.RemoveLiquidity",
          "name": "liquidity",
          "type": "tuple"
        },
        {
          "components": [
            {
              "internalType": "contract IERC20Extended",
              "name": "token",
              "type": "address"
            },
            {
              "internalType": "uint256",
              "name": "amount",
              "type": "uint256"
            },
            {
              "internalType": "uint256",
              "name": "deadline",
              "type": "uint256"
            },
            {
              "internalType": "uint8",
              "name": "v",
              "type": "uint8"
            },
            {
              "internalType": "bytes32",
              "name": "r",
              "type": "bytes32"
            },
            {
              "internalType": "bytes32",
              "name": "s",
              "type": "bytes32"
            }
          ],
          "internalType": "struct ArcherSwapRouter.Permit",
          "name": "permit",
          "type": "tuple"
        }
      ],
      "name": "removeLiquidityWithPermitAndTipAmount",
      "outputs": [],
      "stateMutability": "payable",
      "type": "function"
    },
    {
      "inputs": [
        {
          "internalType": "contract IUniRouter",
          "name": "router",
          "type": "address"
        },
        {
          "components": [
            {
              "internalType": "uint256",
              "name": "amountIn",
              "type": "uint256"
            },
            {
              "internalType": "uint256",
              "name": "amountOutMin",
              "type": "uint256"
            },
            {
              "internalType": "address[]",
              "name": "path",
              "type": "address[]"
            },
            {
              "internalType": "address payable",
              "name": "to",
              "type": "address"
            },
            {
              "internalType": "uint256",
              "name": "deadline",
              "type": "uint256"
            }
          ],
          "internalType": "struct ArcherSwapRouter.Trade",
          "name": "trade",
          "type": "tuple"
        },
        {
          "internalType": "uint256",
          "name": "tipAmount",
          "type": "uint256"
        }
      ],
      "name": "swapETHForTokensWithTipAmount",
      "outputs": [],
      "stateMutability": "payable",
      "type": "function"
    },
    {
      "inputs": [
        {
          "internalType": "contract IUniRouter",
          "name": "router",
          "type": "address"
        },
        {
          "components": [
            {
              "internalType": "uint256",
              "name": "amountIn",
              "type": "uint256"
            },
            {
              "internalType": "uint256",
              "name": "amountOutMin",
              "type": "uint256"
            },
            {
              "internalType": "address[]",
              "name": "path",
              "type": "address[]"
            },
            {
              "internalType": "address payable",
              "name": "to",
              "type": "address"
            },
            {
              "internalType": "uint256",
              "name": "deadline",
              "type": "uint256"
            }
          ],
          "internalType": "struct ArcherSwapRouter.Trade",
          "name": "trade",
          "type": "tuple"
        },
        {
          "internalType": "uint32",
          "name": "tipPct",
          "type": "uint32"
        }
      ],
      "name": "swapETHForTokensWithTipPct",
      "outputs": [],
      "stateMutability": "payable",
      "type": "function"
    },
    {
      "inputs": [
        {
          "internalType": "contract IUniRouter",
          "name": "router",
          "type": "address"
        },
        {
          "components": [
            {
              "internalType": "uint256",
              "name": "amountIn",
              "type": "uint256"
            },
            {
              "internalType": "uint256",
              "name": "amountOutMin",
              "type": "uint256"
            },
            {
              "internalType": "address[]",
              "name": "path",
              "type": "address[]"
            },
            {
              "internalType": "address payable",
              "name": "to",
              "type": "address"
            },
            {
              "internalType": "uint256",
              "name": "deadline",
              "type": "uint256"
            }
          ],
          "internalType": "struct ArcherSwapRouter.Trade",
          "name": "trade",
          "type": "tuple"
        }
      ],
      "name": "swapTokensForETHAndTipAmount",
      "outputs": [],
      "stateMutability": "payable",
      "type": "function"
    },
    {
      "inputs": [
        {
          "internalType": "contract IUniRouter",
          "name": "router",
          "type": "address"
        },
        {
          "components": [
            {
              "internalType": "uint256",
              "name": "amountIn",
              "type": "uint256"
            },
            {
              "internalType": "uint256",
              "name": "amountOutMin",
              "type": "uint256"
            },
            {
              "internalType": "address[]",
              "name": "path",
              "type": "address[]"
            },
            {
              "internalType": "address payable",
              "name": "to",
              "type": "address"
            },
            {
              "internalType": "uint256",
              "name": "deadline",
              "type": "uint256"
            }
          ],
          "internalType": "struct ArcherSwapRouter.Trade",
          "name": "trade",
          "type": "tuple"
        },
        {
          "internalType": "uint32",
          "name": "tipPct",
          "type": "uint32"
        }
      ],
      "name": "swapTokensForETHAndTipPct",
      "outputs": [],
      "stateMutability": "payable",
      "type": "function"
    },
    {
      "inputs": [
        {
          "internalType": "contract IUniRouter",
          "name": "router",
          "type": "address"
        },
        {
          "components": [
            {
              "internalType": "uint256",
              "name": "amountIn",
              "type": "uint256"
            },
            {
              "internalType": "uint256",
              "name": "amountOutMin",
              "type": "uint256"
            },
            {
              "internalType": "address[]",
              "name": "path",
              "type": "address[]"
            },
            {
              "internalType": "address payable",
              "name": "to",
              "type": "address"
            },
            {
              "internalType": "uint256",
              "name": "deadline",
              "type": "uint256"
            }
          ],
          "internalType": "struct ArcherSwapRouter.Trade",
          "name": "trade",
          "type": "tuple"
        },
        {
          "components": [
            {
              "internalType": "contract IERC20Extended",
              "name": "token",
              "type": "address"
            },
            {
              "internalType": "uint256",
              "name": "amount",
              "type": "uint256"
            },
            {
              "internalType": "uint256",
              "name": "deadline",
              "type": "uint256"
            },
            {
              "internalType": "uint8",
              "name": "v",
              "type": "uint8"
            },
            {
              "internalType": "bytes32",
              "name": "r",
              "type": "bytes32"
            },
            {
              "internalType": "bytes32",
              "name": "s",
              "type": "bytes32"
            }
          ],
          "internalType": "struct ArcherSwapRouter.Permit",
          "name": "permit",
          "type": "tuple"
        }
      ],
      "name": "swapTokensForETHWithPermitAndTipAmount",
      "outputs": [],
      "stateMutability": "payable",
      "type": "function"
    },
    {
      "inputs": [
        {
          "internalType": "contract IUniRouter",
          "name": "router",
          "type": "address"
        },
        {
          "components": [
            {
              "internalType": "uint256",
              "name": "amountIn",
              "type": "uint256"
            },
            {
              "internalType": "uint256",
              "name": "amountOutMin",
              "type": "uint256"
            },
            {
              "internalType": "address[]",
              "name": "path",
              "type": "address[]"
            },
            {
              "internalType": "address payable",
              "name": "to",
              "type": "address"
            },
            {
              "internalType": "uint256",
              "name": "deadline",
              "type": "uint256"
            }
          ],
          "internalType": "struct ArcherSwapRouter.Trade",
          "name": "trade",
          "type": "tuple"
        },
        {
          "components": [
            {
              "internalType": "contract IERC20Extended",
              "name": "token",
              "type": "address"
            },
            {
              "internalType": "uint256",
              "name": "amount",
              "type": "uint256"
            },
            {
              "internalType": "uint256",
              "name": "deadline",
              "type": "uint256"
            },
            {
              "internalType": "uint8",
              "name": "v",
              "type": "uint8"
            },
            {
              "internalType": "bytes32",
              "name": "r",
              "type": "bytes32"
            },
            {
              "internalType": "bytes32",
              "name": "s",
              "type": "bytes32"
            }
          ],
          "internalType": "struct ArcherSwapRouter.Permit",
          "name": "permit",
          "type": "tuple"
        },
        {
          "internalType": "uint32",
          "name": "tipPct",
          "type": "uint32"
        }
      ],
      "name": "swapTokensForETHWithPermitAndTipPct",
      "outputs": [],
      "stateMutability": "payable",
      "type": "function"
    },
    {
      "inputs": [
        {
          "internalType": "contract IUniRouter",
          "name": "router",
          "type": "address"
        },
        {
          "components": [
            {
              "internalType": "uint256",
              "name": "amountIn",
              "type": "uint256"
            },
            {
              "internalType": "uint256",
              "name": "amountOutMin",
              "type": "uint256"
            },
            {
              "internalType": "address[]",
              "name": "path",
              "type": "address[]"
            },
            {
              "internalType": "address payable",
              "name": "to",
              "type": "address"
            },
            {
              "internalType": "uint256",
              "name": "deadline",
              "type": "uint256"
            }
          ],
          "internalType": "struct ArcherSwapRouter.Trade",
          "name": "trade",
          "type": "tuple"
        },
        {
          "components": [
            {
              "internalType": "contract IERC20Extended",
              "name": "token",
              "type": "address"
            },
            {
              "internalType": "uint256",
              "name": "amount",
              "type": "uint256"
            },
            {
              "internalType": "uint256",
              "name": "deadline",
              "type": "uint256"
            },
            {
              "internalType": "uint8",
              "name": "v",
              "type": "uint8"
            },
            {
              "internalType": "bytes32",
              "name": "r",
              "type": "bytes32"
            },
            {
              "internalType": "bytes32",
              "name": "s",
              "type": "bytes32"
            }
          ],
          "internalType": "struct ArcherSwapRouter.Permit",
          "name": "permit",
          "type": "tuple"
        }
      ],
      "name": "swapTokensForTokensWithPermitAndTipAmount",
      "outputs": [],
      "stateMutability": "payable",
      "type": "function"
    },
    {
      "inputs": [
        {
          "internalType": "contract IUniRouter",
          "name": "router",
          "type": "address"
        },
        {
          "components": [
            {
              "internalType": "uint256",
              "name": "amountIn",
              "type": "uint256"
            },
            {
              "internalType": "uint256",
              "name": "amountOutMin",
              "type": "uint256"
            },
            {
              "internalType": "address[]",
              "name": "path",
              "type": "address[]"
            },
            {
              "internalType": "address payable",
              "name": "to",
              "type": "address"
            },
            {
              "internalType": "uint256",
              "name": "deadline",
              "type": "uint256"
            }
          ],
          "internalType": "struct ArcherSwapRouter.Trade",
          "name": "trade",
          "type": "tuple"
        },
        {
          "components": [
            {
              "internalType": "contract IERC20Extended",
              "name": "token",
              "type": "address"
            },
            {
              "internalType": "uint256",
              "name": "amount",
              "type": "uint256"
            },
            {
              "internalType": "uint256",
              "name": "deadline",
              "type": "uint256"
            },
            {
              "internalType": "uint8",
              "name": "v",
              "type": "uint8"
            },
            {
              "internalType": "bytes32",
              "name": "r",
              "type": "bytes32"
            },
            {
              "internalType": "bytes32",
              "name": "s",
              "type": "bytes32"
            }
          ],
          "internalType": "struct ArcherSwapRouter.Permit",
          "name": "permit",
          "type": "tuple"
        },
        {
          "internalType": "address[]",
          "name": "pathToEth",
          "type": "address[]"
        },
        {
          "internalType": "uint256",
          "name": "minEth",
          "type": "uint256"
        },
        {
          "internalType": "uint32",
          "name": "tipPct",
          "type": "uint32"
        }
      ],
      "name": "swapTokensForTokensWithPermitAndTipPct",
      "outputs": [],
      "stateMutability": "payable",
      "type": "function"
    },
    {
      "inputs": [
        {
          "internalType": "contract IUniRouter",
          "name": "router",
          "type": "address"
        },
        {
          "components": [
            {
              "internalType": "uint256",
              "name": "amountIn",
              "type": "uint256"
            },
            {
              "internalType": "uint256",
              "name": "amountOutMin",
              "type": "uint256"
            },
            {
              "internalType": "address[]",
              "name": "path",
              "type": "address[]"
            },
            {
              "internalType": "address payable",
              "name": "to",
              "type": "address"
            },
            {
              "internalType": "uint256",
              "name": "deadline",
              "type": "uint256"
            }
          ],
          "internalType": "struct ArcherSwapRouter.Trade",
          "name": "trade",
          "type": "tuple"
        }
      ],
      "name": "swapTokensForTokensWithTipAmount",
      "outputs": [],
      "stateMutability": "payable",
      "type": "function"
    },
    {
      "inputs": [
        {
          "internalType": "contract IUniRouter",
          "name": "router",
          "type": "address"
        },
        {
          "components": [
            {
              "internalType": "uint256",
              "name": "amountIn",
              "type": "uint256"
            },
            {
              "internalType": "uint256",
              "name": "amountOutMin",
              "type": "uint256"
            },
            {
              "internalType": "address[]",
              "name": "path",
              "type": "address[]"
            },
            {
              "internalType": "address payable",
              "name": "to",
              "type": "address"
            },
            {
              "internalType": "uint256",
              "name": "deadline",
              "type": "uint256"
            }
          ],
          "internalType": "struct ArcherSwapRouter.Trade",
          "name": "trade",
          "type": "tuple"
        },
        {
          "internalType": "address[]",
          "name": "pathToEth",
          "type": "address[]"
        },
        {
          "internalType": "uint256",
          "name": "minEth",
          "type": "uint256"
        },
        {
          "internalType": "uint32",
          "name": "tipPct",
          "type": "uint32"
        }
      ],
      "name": "swapTokensForTokensWithTipPct",
      "outputs": [],
      "stateMutability": "payable",
      "type": "function"
    },
    {
      "inputs": [],
      "name": "tipJar",
      "outputs": [
        {
          "internalType": "contract ITipJar",
          "name": "",
          "type": "address"
        }
      ],
      "stateMutability": "view",
      "type": "function"
    },
    {
      "stateMutability": "payable",
      "type": "receive"
    }
  ],
  "transactionHash": "0xce56087aa2cc09071852c7401b83c5e06bdb3377c995174bf32b50a5f985712f",
  "args": [
    "0x914528335B5d031c93Ac86e6F6A6C67052Eb44f0"
  ],
  "solcInputHash": "5914c5a9c14760eb50683f1cad9eed50",
  "bytecode": "0x60a06040523480156200001157600080fd5b50604051620034473803806200344783398101604081905262000034916200004a565b60601b6001600160601b0319166080526200007a565b6000602082840312156200005c578081fd5b81516001600160a01b038116811462000073578182fd5b9392505050565b60805160601c613399620000ae6000396000818161026d0152818161168501528181611ce20152611e2e01526133996000f3fe6080604052600436106101485760003560e01c806361692ecf116100c05780637aaceb9511610074578063b05703fc11610059578063b05703fc146102cb578063e6f03f72146102de578063ef973cc0146102f15761014f565b80637aaceb951461025b578063a8bd55bf146102b85761014f565b80637366e884116100a55780637366e884146102225780637583d2bd1461023557806375b71558146102485761014f565b806361692ecf146101fc578063646318381461020f5761014f565b80633322874611610117578063500e5c7b116100fc578063500e5c7b146101c35780635a7df949146101d65780635e94e5d2146101e95761014f565b8063332287461461019d5780634ea618ac146101b05761014f565b806319a0f5a01461015157806328230aa114610164578063298525f1146101775780632fce15611461018a5761014f565b3661014f57005b005b61014f61015f366004612c81565b610304565b61014f610172366004612c39565b6103ba565b61014f610185366004612d61565b6104b5565b61014f610198366004612ccf565b61056d565b61014f6101ab366004612f1f565b61077e565b61014f6101be366004612b3a565b61080f565b61014f6101d1366004612f1f565b610934565b61014f6101e4366004612db8565b610a7e565b61014f6101f7366004612d61565b610cc4565b61014f61020a366004612be6565b610de3565b61014f61021d366004612ec8565b610f32565b61014f610230366004612b04565b611041565b61014f610243366004612c39565b611103565b61014f610256366004612c81565b6111e0565b34801561026757600080fd5b5061028f7f000000000000000000000000000000000000000000000000000000000000000081565b60405173ffffffffffffffffffffffffffffffffffffffff909116815260200160405180910390f35b61014f6102c6366004612c26565b6112ef565b61014f6102d9366004612e61565b6113ac565b61014f6102ec366004612c26565b611457565b61014f6102ff366004612b95565b611524565b60003411610373576040517f08c379a000000000000000000000000000000000000000000000000000000000815260206004820152601660248201527f74697020616d6f756e74206d757374206265203e20300000000000000000000060448201526064015b60405180910390fd5b61037c34611683565b61039e828235602084013561039460408601866131d8565b8660800135611707565b6103b66103b16080830160608401612ac8565b611834565b5050565b60003411610424576040517f08c379a000000000000000000000000000000000000000000000000000000000815260206004820152601660248201527f74697020616d6f756e74206d757374206265203e203000000000000000000000604482015260640161036a565b61042d34611683565b61046661043d6020830183612ac8565b602083013560408401356104576080860160608701612fdc565b85608001358660a001356118a1565b6104b0836104776020850185612ac8565b6104876040860160208701612ac8565b6060860135608087013560a08801356104a660e08a0160c08b01612ac8565b8960e00135611947565b505050565b6000341161051f576040517f08c379a000000000000000000000000000000000000000000000000000000000815260206004820152601660248201527f74697020616d6f756e74206d757374206265203e203000000000000000000000604482015260640161036a565b61052f61043d6020830183612ac8565b610551838335602085013561054760408701876131d8565b8760800135611707565b61055a34611683565b6104b06103b16080840160608501612ac8565b60008163ffffffff16116105dd576040517f08c379a000000000000000000000000000000000000000000000000000000000815260206004820152601260248201527f746970506374206d757374206265203e20300000000000000000000000000000604482015260640161036a565b6105ff86863560208801356105f560408a018a6131d8565b8a60800135611af6565b60008484600081811061063b577f4e487b7100000000000000000000000000000000000000000000000000000000600052603260045260246000fd5b90506020020160208101906106509190612ac8565b6040517f70a0823100000000000000000000000000000000000000000000000000000000815230600482015290915060009073ffffffffffffffffffffffffffffffffffffffff8316906370a082319060240160206040518083038186803b1580156106bb57600080fd5b505afa1580156106cf573d6000803e3d6000fd5b505050506040513d601f19601f820116820180604052508101906106f39190612f74565b90506000620f424061070b63ffffffff86168461328f565b6107159190613256565b905061075a898289898080602002602001604051908101604052809392919081815260200183836020028082843760009201919091525050505060808c013589611be8565b6107738361076e60808b0160608c01612ac8565b611d48565b505050505050505050565b60008163ffffffff16116107ee576040517f08c379a000000000000000000000000000000000000000000000000000000000815260206004820152601260248201527f746970506374206d757374206265203e20300000000000000000000000000000604482015260640161036a565b610806838335602085013561054760408701876131d8565b61055a81611e09565b60003411610879576040517f08c379a000000000000000000000000000000000000000000000000000000000815260206004820152601660248201527f74697020616d6f756e74206d757374206265203e203000000000000000000000604482015260640161036a565b6020820135156108bc576108bc6108936020840184612ac8565b602084013560408501356108ad6080870160608801612fdc565b86608001358760a001356118a1565b6020810135156108d6576108d661043d6020830183612ac8565b6108df34611683565b61092e846108f06020860186612ac8565b6109006040870160208801612ac8565b60408701356060880135608089013560a08a013561092460e08c0160c08d01612ac8565b8b60e00135611eb2565b50505050565b60008163ffffffff16116109a4576040517f08c379a000000000000000000000000000000000000000000000000000000000815260206004820152601260248201527f746970506374206d757374206265203e20300000000000000000000000000000604482015260640161036a565b60003411610a0e576040517f08c379a000000000000000000000000000000000000000000000000000000000815260206004820152601a60248201527f6d7573742073656e642045544820746f20636f76657220746970000000000000604482015260640161036a565b6000620f4240610a2463ffffffff84163461328f565b610a2e9190613256565b9050610a3981611683565b610a6b8484356020860135610a5160408801886131d8565b610a6160808a0160608b01612ac8565b89608001356121ba565b61092e6103b16080850160608601612ac8565b60008163ffffffff1611610aee576040517f08c379a000000000000000000000000000000000000000000000000000000000815260206004820152601260248201527f746970506374206d757374206265203e20300000000000000000000000000000604482015260640161036a565b610b27610afe6020870187612ac8565b60208701356040880135610b1860808a0160608b01612fdc565b89608001358a60a001356118a1565b610b498787356020890135610b3f60408b018b6131d8565b8b60800135611af6565b600084846000818110610b85577f4e487b7100000000000000000000000000000000000000000000000000000000600052603260045260246000fd5b9050602002016020810190610b9a9190612ac8565b6040517f70a0823100000000000000000000000000000000000000000000000000000000815230600482015290915060009073ffffffffffffffffffffffffffffffffffffffff8316906370a082319060240160206040518083038186803b158015610c0557600080fd5b505afa158015610c19573d6000803e3d6000fd5b505050506040513d601f19601f82011682018060405250810190610c3d9190612f74565b90506000620f4240610c5563ffffffff86168461328f565b610c5f9190613256565b9050610ca48a8289898080602002602001604051908101604052809392919081815260200183836020028082843760009201919091525050505060808d013589611be8565b610cb88361076e60808c0160608d01612ac8565b50505050505050505050565b60003411610d2e576040517f08c379a000000000000000000000000000000000000000000000000000000000815260206004820152601660248201527f74697020616d6f756e74206d757374206265203e203000000000000000000000604482015260640161036a565b610d3734611683565b610d4761043d6020830183612ac8565b610d698383356020850135610d5f60408701876131d8565b8760800135611af6565b6104b0610d7960408401846131d8565b610d8660408601866131d8565b9050818110610dbe577f4e487b7100000000000000000000000000000000000000000000000000000000600052603260045260246000fd5b9050602002016020810190610dd39190612ac8565b61076e6080850160608601612ac8565b60008111610e4d576040517f08c379a000000000000000000000000000000000000000000000000000000000815260206004820152601660248201527f74697020616d6f756e74206d757374206265203e203000000000000000000000604482015260640161036a565b610e5b81606084013561323e565b341015610eea576040517f08c379a000000000000000000000000000000000000000000000000000000000815260206004820152602660248201527f6d7573742073656e642045544820746f20636f76657220746970202b206c697160448201527f7569646974790000000000000000000000000000000000000000000000000000606482015260840161036a565b610ef381611683565b6104b083610f046020850185612ac8565b60408501356060860135608087013560a0880135610f2860e08a0160c08b01612ac8565b8960e00135612243565b60008111610f9c576040517f08c379a000000000000000000000000000000000000000000000000000000000815260206004820152601660248201527f74697020616d6f756e74206d757374206265203e203000000000000000000000604482015260640161036a565b80341015611006576040517f08c379a000000000000000000000000000000000000000000000000000000000815260206004820152601a60248201527f6d7573742073656e642045544820746f20636f76657220746970000000000000604482015260640161036a565b61100f81611683565b61055a838335602085013561102760408701876131d8565b6110376080890160608a01612ac8565b88608001356121ba565b600034116110ab576040517f08c379a000000000000000000000000000000000000000000000000000000000815260206004820152601660248201527f74697020616d6f756e74206d757374206265203e203000000000000000000000604482015260640161036a565b6110b434611683565b6103b6826110c56020840184612ac8565b6110d56040850160208601612ac8565b60408501356060860135608087013560a08801356110f960e08a0160c08b01612ac8565b8960e00135611eb2565b6000341161116d576040517f08c379a000000000000000000000000000000000000000000000000000000000815260206004820152601660248201527f74697020616d6f756e74206d757374206265203e203000000000000000000000604482015260640161036a565b61117634611683565b61118661043d6020830183612ac8565b6104b0836111976020850185612ac8565b6111a76040860160208701612ac8565b6111b76060870160408801612ac8565b6060870135608088013560a08901356111d660e08b0160c08c01612ac8565b8a60e0013561238b565b6000341161124a576040517f08c379a000000000000000000000000000000000000000000000000000000000815260206004820152601660248201527f74697020616d6f756e74206d757374206265203e203000000000000000000000604482015260640161036a565b61125334611683565b611275828235602084013561126b60408601866131d8565b8660800135611af6565b6103b661128560408301836131d8565b61129260408501856131d8565b90508181106112ca577f4e487b7100000000000000000000000000000000000000000000000000000000600052603260045260246000fd5b90506020020160208101906112df9190612ac8565b61076e6080840160608501612ac8565b60003411611359576040517f08c379a000000000000000000000000000000000000000000000000000000000815260206004820152601660248201527f74697020616d6f756e74206d757374206265203e203000000000000000000000604482015260640161036a565b61136234611683565b6103b6826113736020840184612ac8565b6113836040850160208601612ac8565b6060850135608086013560a08701356113a260e0890160c08a01612ac8565b8860e00135611947565b60008163ffffffff161161141c576040517f08c379a000000000000000000000000000000000000000000000000000000000815260206004820152601260248201527f746970506374206d757374206265203e20300000000000000000000000000000604482015260640161036a565b61142c6108936020840184612ac8565b61144e848435602086013561144460408801886131d8565b8860800135611707565b610a6b81611e09565b600034116114c1576040517f08c379a000000000000000000000000000000000000000000000000000000000815260206004820152601660248201527f74697020616d6f756e74206d757374206265203e203000000000000000000000604482015260640161036a565b6114ca34611683565b6103b6826114db6020840184612ac8565b6114eb6040850160208601612ac8565b6114fb6060860160408701612ac8565b6060860135608087013560a088013561151a60e08a0160c08b01612ac8565b8960e0013561238b565b6000811161158e576040517f08c379a000000000000000000000000000000000000000000000000000000000815260206004820152601660248201527f74697020616d6f756e74206d757374206265203e203000000000000000000000604482015260640161036a565b61159c81606085013561323e565b34101561162b576040517f08c379a000000000000000000000000000000000000000000000000000000000815260206004820152602660248201527f6d7573742073656e642045544820746f20636f76657220746970202b206c697160448201527f7569646974790000000000000000000000000000000000000000000000000000606482015260840161036a565b61163b6108936020840184612ac8565b61164481611683565b61092e846116556020860186612ac8565b60408601356060870135608088013560a089013561167960e08b0160c08c01612ac8565b8a60e00135612243565b7f000000000000000000000000000000000000000000000000000000000000000073ffffffffffffffffffffffffffffffffffffffff16632755cd2d826040518263ffffffff1660e01b81526004016000604051808303818588803b1580156116eb57600080fd5b505af11580156116ff573d6000803e3d6000fd5b505050505050565b600083836000818110611743577f4e487b7100000000000000000000000000000000000000000000000000000000600052603260045260246000fd5b90506020020160208101906117589190612ac8565b905061177c73ffffffffffffffffffffffffffffffffffffffff82163330896124e8565b61179d73ffffffffffffffffffffffffffffffffffffffff821688886125c4565b6040517f791ac94700000000000000000000000000000000000000000000000000000000815273ffffffffffffffffffffffffffffffffffffffff88169063791ac947906117f990899089908990899030908a90600401613103565b600060405180830381600087803b15801561181357600080fd5b505af1158015611827573d6000803e3d6000fd5b5050505050505050505050565b60008173ffffffffffffffffffffffffffffffffffffffff164760405160006040518083038185875af1925050503d806000811461188e576040519150601f19603f3d011682016040523d82523d6000602084013e611893565b606091505b50509050806103b657600080fd5b6040517fd505accf000000000000000000000000000000000000000000000000000000008152336004820152306024820152604481018690526064810185905260ff8416608482015260a4810183905260c4810182905273ffffffffffffffffffffffffffffffffffffffff87169063d505accf9060e401600060405180830381600087803b15801561193357600080fd5b505af1158015610cb8573d6000803e3d6000fd5b61196973ffffffffffffffffffffffffffffffffffffffff88163330886124e8565b61198a73ffffffffffffffffffffffffffffffffffffffff881689876125c4565b6040517f02751cec00000000000000000000000000000000000000000000000000000000815273ffffffffffffffffffffffffffffffffffffffff8781166004830152602482018790526044820186905260648201859052838116608483015260a4820183905260009182918b16906302751cec9060c4016040805180830381600087803b158015611a1b57600080fd5b505af1158015611a2f573d6000803e3d6000fd5b505050506040513d601f19601f82011682018060405250810190611a539190612f8c565b909250905087611a7a73ffffffffffffffffffffffffffffffffffffffff821633856126d1565b60003373ffffffffffffffffffffffffffffffffffffffff16836040515b60006040518083038185875af1925050503d8060008114611ad5576040519150601f19603f3d011682016040523d82523d6000602084013e611ada565b606091505b5050905080611ae857600080fd5b505050505050505050505050565b600083836000818110611b32577f4e487b7100000000000000000000000000000000000000000000000000000000600052603260045260246000fd5b9050602002016020810190611b479190612ac8565b9050611b6b73ffffffffffffffffffffffffffffffffffffffff82163330896124e8565b611b8c73ffffffffffffffffffffffffffffffffffffffff821688886125c4565b6040517f5c11d79500000000000000000000000000000000000000000000000000000000815273ffffffffffffffffffffffffffffffffffffffff881690635c11d795906117f990899089908990899030908a90600401613103565b611c54858585600081518110611c27577f4e487b7100000000000000000000000000000000000000000000000000000000600052603260045260246000fd5b602002602001015173ffffffffffffffffffffffffffffffffffffffff166125c49092919063ffffffff16565b6040517f791ac94700000000000000000000000000000000000000000000000000000000815273ffffffffffffffffffffffffffffffffffffffff86169063791ac94790611cae908790859088903090899060040161314e565b600060405180830381600087803b158015611cc857600080fd5b505af1158015611cdc573d6000803e3d6000fd5b505050507f000000000000000000000000000000000000000000000000000000000000000073ffffffffffffffffffffffffffffffffffffffff16632755cd2d476040518263ffffffff1660e01b81526004016000604051808303818588803b15801561193357600080fd5b6040517f70a082310000000000000000000000000000000000000000000000000000000081523060048201526103b690829073ffffffffffffffffffffffffffffffffffffffff8516906370a082319060240160206040518083038186803b158015611db357600080fd5b505afa158015611dc7573d6000803e3d6000fd5b505050506040513d601f19601f82011682018060405250810190611deb9190612f74565b73ffffffffffffffffffffffffffffffffffffffff851691906126d1565b476000620f4240611e2063ffffffff85168461328f565b611e2a9190613256565b90507f000000000000000000000000000000000000000000000000000000000000000073ffffffffffffffffffffffffffffffffffffffff16632755cd2d826040518263ffffffff1660e01b81526004016000604051808303818588803b158015611e9457600080fd5b505af1158015611ea8573d6000803e3d6000fd5b5050505050505050565b8787611ed673ffffffffffffffffffffffffffffffffffffffff831633308b6124e8565b611ef773ffffffffffffffffffffffffffffffffffffffff83168c8a6125c4565b611f1973ffffffffffffffffffffffffffffffffffffffff821633308a6124e8565b611f3a73ffffffffffffffffffffffffffffffffffffffff82168c896125c4565b6040517fe8e3370000000000000000000000000000000000000000000000000000000000815273ffffffffffffffffffffffffffffffffffffffff8b811660048301528a81166024830152604482018a9052606482018990526084820188905260a4820187905285811660c483015260e4820185905260009182918e169063e8e337009061010401606060405180830381600087803b158015611fdc57600080fd5b505af1158015611ff0573d6000803e3d6000fd5b505050506040513d601f19601f820116820180604052508101906120149190612faf565b5091509150818a11156120e2576040517f70a082310000000000000000000000000000000000000000000000000000000081523060048201526120e290339073ffffffffffffffffffffffffffffffffffffffff8716906370a082319060240160206040518083038186803b15801561208c57600080fd5b505afa1580156120a0573d6000803e3d6000fd5b505050506040513d601f19601f820116820180604052508101906120c49190612f74565b73ffffffffffffffffffffffffffffffffffffffff871691906126d1565b808911156121ab576040517f70a082310000000000000000000000000000000000000000000000000000000081523060048201526121ab90339073ffffffffffffffffffffffffffffffffffffffff8616906370a082319060240160206040518083038186803b15801561215557600080fd5b505afa158015612169573d6000803e3d6000fd5b505050506040513d601f19601f8201168201806040525081019061218d9190612f74565b73ffffffffffffffffffffffffffffffffffffffff861691906126d1565b50505050505050505050505050565b6040517fb6f9de9500000000000000000000000000000000000000000000000000000000815273ffffffffffffffffffffffffffffffffffffffff88169063b6f9de9590889061221690899089908990899089906004016130bf565b6000604051808303818588803b15801561222f57600080fd5b505af1158015611ae8573d6000803e3d6000fd5b8661226673ffffffffffffffffffffffffffffffffffffffff821633308a6124e8565b61228773ffffffffffffffffffffffffffffffffffffffff82168a896125c4565b6040517ff305d71900000000000000000000000000000000000000000000000000000000815273ffffffffffffffffffffffffffffffffffffffff8981166004830152602482018990526044820187905260648201869052848116608483015260a4820184905260009182918c169063f305d719908a9060c4016060604051808303818588803b15801561231a57600080fd5b505af115801561232e573d6000803e3d6000fd5b50505050506040513d601f19601f820116820180604052508101906123539190612faf565b50915091508189111561236e5761236e3361218d848c6132cc565b8088111561182757600033612383838b6132cc565b604051611a98565b6123ad73ffffffffffffffffffffffffffffffffffffffff89163330886124e8565b6123ce73ffffffffffffffffffffffffffffffffffffffff89168a876125c4565b6040517fbaa2abde00000000000000000000000000000000000000000000000000000000815273ffffffffffffffffffffffffffffffffffffffff8881166004830152878116602483015260448201879052606482018690526084820185905283811660a483015260c4820183905260009182918c169063baa2abde9060e4016040805180830381600087803b15801561246757600080fd5b505af115801561247b573d6000803e3d6000fd5b505050506040513d601f19601f8201168201806040525081019061249f9190612f8c565b909250905088886124c773ffffffffffffffffffffffffffffffffffffffff831633866126d1565b6121ab73ffffffffffffffffffffffffffffffffffffffff821633856126d1565b60405173ffffffffffffffffffffffffffffffffffffffff8085166024830152831660448201526064810182905261092e9085907f23b872dd00000000000000000000000000000000000000000000000000000000906084015b604080517fffffffffffffffffffffffffffffffffffffffffffffffffffffffffffffffe08184030181529190526020810180517bffffffffffffffffffffffffffffffffffffffffffffffffffffffff167fffffffff0000000000000000000000000000000000000000000000000000000090931692909217909152612727565b6040517fdd62ed3e00000000000000000000000000000000000000000000000000000000815230600482015273ffffffffffffffffffffffffffffffffffffffff8381166024830152600091839186169063dd62ed3e9060440160206040518083038186803b15801561263657600080fd5b505afa15801561264a573d6000803e3d6000fd5b505050506040513d601f19601f8201168201806040525081019061266e9190612f74565b612678919061323e565b60405173ffffffffffffffffffffffffffffffffffffffff851660248201526044810182905290915061092e9085907f095ea7b30000000000000000000000000000000000000000000000000000000090606401612542565b60405173ffffffffffffffffffffffffffffffffffffffff83166024820152604481018290526104b09084907fa9059cbb0000000000000000000000000000000000000000000000000000000090606401612542565b6000612789826040518060400160405280602081526020017f5361666545524332303a206c6f772d6c6576656c2063616c6c206661696c65648152508573ffffffffffffffffffffffffffffffffffffffff166128339092919063ffffffff16565b8051909150156104b057808060200190518101906127a79190612ae4565b6104b0576040517f08c379a000000000000000000000000000000000000000000000000000000000815260206004820152602a60248201527f5361666545524332303a204552433230206f7065726174696f6e20646964206e60448201527f6f74207375636365656400000000000000000000000000000000000000000000606482015260840161036a565b6060612842848460008561284c565b90505b9392505050565b6060824710156128de576040517f08c379a000000000000000000000000000000000000000000000000000000000815260206004820152602660248201527f416464726573733a20696e73756666696369656e742062616c616e636520666f60448201527f722063616c6c0000000000000000000000000000000000000000000000000000606482015260840161036a565b6128e7856129d3565b61294d576040517f08c379a000000000000000000000000000000000000000000000000000000000815260206004820152601d60248201527f416464726573733a2063616c6c20746f206e6f6e2d636f6e7472616374000000604482015260640161036a565b6000808673ffffffffffffffffffffffffffffffffffffffff1685876040516129769190613052565b60006040518083038185875af1925050503d80600081146129b3576040519150601f19603f3d011682016040523d82523d6000602084013e6129b8565b606091505b50915091506129c88282866129dd565b979650505050505050565b803b15155b919050565b606083156129ec575081612845565b8251156129fc5782518084602001fd5b816040517f08c379a000000000000000000000000000000000000000000000000000000000815260040161036a919061306e565b60008083601f840112612a41578182fd5b50813567ffffffffffffffff811115612a58578182fd5b6020830191508360208260051b8501011115612a7357600080fd5b9250929050565b60006101008284031215612a8c578081fd5b50919050565b600060c08284031215612a8c578081fd5b600060a08284031215612a8c578081fd5b803563ffffffff811681146129d857600080fd5b600060208284031215612ad9578081fd5b81356128458161333e565b600060208284031215612af5578081fd5b81518015158114612845578182fd5b6000806101208385031215612b17578081fd5b8235612b228161333e565b9150612b318460208501612a7a565b90509250929050565b6000806000806102a08587031215612b50578182fd5b8435612b5b8161333e565b9350612b6a8660208701612a7a565b9250612b7a866101208701612a92565b9150612b8a866101e08701612a92565b905092959194509250565b6000806000806102008587031215612bab578384fd5b8435612bb68161333e565b9350612bc58660208701612a7a565b9250612bd5866101208701612a92565b939692955092936101e00135925050565b60008060006101408486031215612bfb578283fd5b8335612c068161333e565b9250612c158560208601612a7a565b915061012084013590509250925092565b6000806101208385031215612b17578182fd5b60008060006101e08486031215612c4e578283fd5b8335612c598161333e565b9250612c688560208601612a7a565b9150612c78856101208601612a92565b90509250925092565b60008060408385031215612c93578081fd5b8235612c9e8161333e565b9150602083013567ffffffffffffffff811115612cb9578182fd5b612cc585828601612aa3565b9150509250929050565b60008060008060008060a08789031215612ce7578384fd5b8635612cf28161333e565b9550602087013567ffffffffffffffff80821115612d0e578586fd5b612d1a8a838b01612aa3565b96506040890135915080821115612d2f578586fd5b50612d3c89828a01612a30565b90955093505060608701359150612d5560808801612ab4565b90509295509295509295565b60008060006101008486031215612d76578081fd5b8335612d818161333e565b9250602084013567ffffffffffffffff811115612d9c578182fd5b612da886828701612aa3565b925050612c788560408601612a92565b6000806000806000806000610160888a031215612dd3578485fd5b8735612dde8161333e565b9650602088013567ffffffffffffffff80821115612dfa578687fd5b612e068b838c01612aa3565b9750612e158b60408c01612a92565b96506101008a0135915080821115612e2b578283fd5b50612e388a828b01612a30565b9095509350506101208801359150612e536101408901612ab4565b905092959891949750929550565b6000806000806101208587031215612e77578182fd5b8435612e828161333e565b9350602085013567ffffffffffffffff811115612e9d578283fd5b612ea987828801612aa3565b935050612eb98660408701612a92565b9150612b8a6101008601612ab4565b600080600060608486031215612edc578081fd5b8335612ee78161333e565b9250602084013567ffffffffffffffff811115612f02578182fd5b612f0e86828701612aa3565b925050604084013590509250925092565b600080600060608486031215612f33578081fd5b8335612f3e8161333e565b9250602084013567ffffffffffffffff811115612f59578182fd5b612f6586828701612aa3565b925050612c7860408501612ab4565b600060208284031215612f85578081fd5b5051919050565b60008060408385031215612f9e578182fd5b505080516020909101519092909150565b600080600060608486031215612fc3578081fd5b8351925060208401519150604084015190509250925092565b600060208284031215612fed578081fd5b813560ff81168114612845578182fd5b60008284526020808501945082825b8581101561304757813561301f8161333e565b73ffffffffffffffffffffffffffffffffffffffff168752958201959082019060010161300c565b509495945050505050565b600082516130648184602087016132e3565b9190910192915050565b600060208252825180602084015261308d8160408501602087016132e3565b601f017fffffffffffffffffffffffffffffffffffffffffffffffffffffffffffffffe0169190910160400192915050565b6000868252608060208301526130d9608083018688612ffd565b73ffffffffffffffffffffffffffffffffffffffff94909416604083015250606001529392505050565b600087825286602083015260a0604083015261312360a083018688612ffd565b73ffffffffffffffffffffffffffffffffffffffff9490941660608301525060800152949350505050565b600060a082018783526020878185015260a0604085015281875180845260c0860191508289019350845b818110156131aa57845173ffffffffffffffffffffffffffffffffffffffff1683529383019391830191600101613178565b505073ffffffffffffffffffffffffffffffffffffffff969096166060850152505050608001529392505050565b60008083357fffffffffffffffffffffffffffffffffffffffffffffffffffffffffffffffe184360301811261320c578283fd5b83018035915067ffffffffffffffff821115613226578283fd5b6020019150600581901b3603821315612a7357600080fd5b600082198211156132515761325161330f565b500190565b60008261328a577f4e487b710000000000000000000000000000000000000000000000000000000081526012600452602481fd5b500490565b6000817fffffffffffffffffffffffffffffffffffffffffffffffffffffffffffffffff04831182151516156132c7576132c761330f565b500290565b6000828210156132de576132de61330f565b500390565b60005b838110156132fe5781810151838201526020016132e6565b8381111561092e5750506000910152565b7f4e487b7100000000000000000000000000000000000000000000000000000000600052601160045260246000fd5b73ffffffffffffffffffffffffffffffffffffffff8116811461336057600080fd5b5056fea2646970667358221220fca530d303e5787e01c5d7c5723e48d2386651d6fab95cae6339212be915a83864736f6c63430008030033",
  "devdoc": {
    "details": "Allows Uniswap V2 Router-compliant trades to be paid via % tips instead of gas",
    "kind": "dev",
    "methods": {
      "addLiquidityAndTipAmount(address,(address,address,uint256,uint256,uint256,uint256,address,uint256))": {
        "params": {
          "liquidity": "Liquidity details",
          "router": "Uniswap V2-compliant Router contract"
        }
      },
      "addLiquidityETHAndTipAmount(address,(address,address,uint256,uint256,uint256,uint256,address,uint256),uint256)": {
        "params": {
          "liquidity": "Liquidity details",
          "router": "Uniswap V2-compliant Router contract",
          "tipAmount": "tip amount"
        }
      },
      "addLiquidityETHWithPermitAndTipAmount(address,(address,address,uint256,uint256,uint256,uint256,address,uint256),(address,uint256,uint256,uint8,bytes32,bytes32),uint256)": {
        "params": {
          "liquidity": "Liquidity details",
          "router": "Uniswap V2-compliant Router contract",
          "tipAmount": "tip amount"
        }
      },
      "addLiquidityWithPermitAndTipAmount(address,(address,address,uint256,uint256,uint256,uint256,address,uint256),(address,uint256,uint256,uint8,bytes32,bytes32),(address,uint256,uint256,uint8,bytes32,bytes32))": {
        "params": {
          "liquidity": "Liquidity details",
          "permitA": "Permit details for token A",
          "permitB": "Permit details for token B",
          "router": "Uniswap V2-compliant Router contract"
        }
      },
      "constructor": {
        "params": {
          "_tipJar": "Address of TipJar contract"
        }
      },
      "removeLiquidityAndTipAmount(address,(address,address,address,uint256,uint256,uint256,address,uint256))": {
        "params": {
          "liquidity": "Liquidity details",
          "router": "Uniswap V2-compliant Router contract"
        }
      },
      "removeLiquidityETHAndTipAmount(address,(address,address,address,uint256,uint256,uint256,address,uint256))": {
        "params": {
          "liquidity": "Liquidity details",
          "router": "Uniswap V2-compliant Router contract"
        }
      },
      "removeLiquidityETHWithPermitAndTipAmount(address,(address,address,address,uint256,uint256,uint256,address,uint256),(address,uint256,uint256,uint8,bytes32,bytes32))": {
        "params": {
          "liquidity": "Liquidity details",
          "permit": "Permit details",
          "router": "Uniswap V2-compliant Router contract"
        }
      },
      "removeLiquidityWithPermitAndTipAmount(address,(address,address,address,uint256,uint256,uint256,address,uint256),(address,uint256,uint256,uint8,bytes32,bytes32))": {
        "params": {
          "liquidity": "Liquidity details",
          "permit": "Permit details",
          "router": "Uniswap V2-compliant Router contract"
        }
      },
      "swapETHForTokensWithTipAmount(address,(uint256,uint256,address[],address,uint256),uint256)": {
        "params": {
          "router": "Uniswap V2-compliant Router contract",
          "tipAmount": "amount of ETH to pay as tip",
          "trade": "Trade details"
        }
      },
      "swapETHForTokensWithTipPct(address,(uint256,uint256,address[],address,uint256),uint32)": {
        "params": {
          "router": "Uniswap V2-compliant Router contract",
          "tipPct": "% of ETH to pay as tip",
          "trade": "Trade details"
        }
      },
      "swapTokensForETHAndTipAmount(address,(uint256,uint256,address[],address,uint256))": {
        "params": {
          "router": "Uniswap V2-compliant Router contract",
          "trade": "Trade details"
        }
      },
      "swapTokensForETHAndTipPct(address,(uint256,uint256,address[],address,uint256),uint32)": {
        "params": {
          "router": "Uniswap V2-compliant Router contract",
          "tipPct": "% of resulting ETH to pay as tip",
          "trade": "Trade details"
        }
      },
      "swapTokensForETHWithPermitAndTipAmount(address,(uint256,uint256,address[],address,uint256),(address,uint256,uint256,uint8,bytes32,bytes32))": {
        "params": {
          "permit": "Permit details",
          "router": "Uniswap V2-compliant Router contract",
          "trade": "Trade details"
        }
      },
      "swapTokensForETHWithPermitAndTipPct(address,(uint256,uint256,address[],address,uint256),(address,uint256,uint256,uint8,bytes32,bytes32),uint32)": {
        "params": {
          "permit": "Permit details",
          "router": "Uniswap V2-compliant Router contract",
          "tipPct": "% of resulting ETH to pay as tip",
          "trade": "Trade details"
        }
      },
      "swapTokensForTokensWithPermitAndTipAmount(address,(uint256,uint256,address[],address,uint256),(address,uint256,uint256,uint8,bytes32,bytes32))": {
        "params": {
          "permit": "Permit details",
          "router": "Uniswap V2-compliant Router contract",
          "trade": "Trade details"
        }
      },
      "swapTokensForTokensWithPermitAndTipPct(address,(uint256,uint256,address[],address,uint256),(address,uint256,uint256,uint8,bytes32,bytes32),address[],uint256,uint32)": {
        "params": {
          "minEth": "ETH minimum for tip conversion",
          "pathToEth": "Path to ETH for tip",
          "permit": "Permit details",
          "router": "Uniswap V2-compliant Router contract",
          "tipPct": "% of resulting tokens to pay as tip",
          "trade": "Trade details"
        }
      },
      "swapTokensForTokensWithTipAmount(address,(uint256,uint256,address[],address,uint256))": {
        "params": {
          "router": "Uniswap V2-compliant Router contract",
          "trade": "Trade details"
        }
      },
      "swapTokensForTokensWithTipPct(address,(uint256,uint256,address[],address,uint256),address[],uint256,uint32)": {
        "params": {
          "minEth": "ETH minimum for tip conversion",
          "pathToEth": "Path to ETH for tip",
          "router": "Uniswap V2-compliant Router contract",
          "tipPct": "% of resulting tokens to pay as tip",
          "trade": "Trade details"
        }
      }
    },
    "title": "ArcherSwapRouter",
    "version": 1
  },
  "userdoc": {
    "kind": "user",
    "methods": {
      "addLiquidityAndTipAmount(address,(address,address,uint256,uint256,uint256,uint256,address,uint256))": {
        "notice": "Add liquidity to token pair"
      },
      "addLiquidityETHAndTipAmount(address,(address,address,uint256,uint256,uint256,uint256,address,uint256),uint256)": {
        "notice": "Add liquidity to ETH>Token pair"
      },
      "addLiquidityETHWithPermitAndTipAmount(address,(address,address,uint256,uint256,uint256,uint256,address,uint256),(address,uint256,uint256,uint8,bytes32,bytes32),uint256)": {
        "notice": "Add liquidity to ETH>Token pair"
      },
      "addLiquidityWithPermitAndTipAmount(address,(address,address,uint256,uint256,uint256,uint256,address,uint256),(address,uint256,uint256,uint8,bytes32,bytes32),(address,uint256,uint256,uint8,bytes32,bytes32))": {
        "notice": "Add liquidity to pair, using permit for approvals"
      },
      "constructor": {
        "notice": "Contructs a new ArcherSwap Router"
      },
      "removeLiquidityAndTipAmount(address,(address,address,address,uint256,uint256,uint256,address,uint256))": {
        "notice": "Remove liquidity from token>token pair"
      },
      "removeLiquidityETHAndTipAmount(address,(address,address,address,uint256,uint256,uint256,address,uint256))": {
        "notice": "Remove liquidity from ETH>token pair"
      },
      "removeLiquidityETHWithPermitAndTipAmount(address,(address,address,address,uint256,uint256,uint256,address,uint256),(address,uint256,uint256,uint8,bytes32,bytes32))": {
        "notice": "Remove liquidity from ETH>token pair, using permit for approval"
      },
      "removeLiquidityWithPermitAndTipAmount(address,(address,address,address,uint256,uint256,uint256,address,uint256),(address,uint256,uint256,uint8,bytes32,bytes32))": {
        "notice": "Remove liquidity from token>token pair, using permit for approval"
      },
      "swapETHForTokensWithTipAmount(address,(uint256,uint256,address[],address,uint256),uint256)": {
        "notice": "Swap ETH for tokens and pay % of ETH input as tip"
      },
      "swapETHForTokensWithTipPct(address,(uint256,uint256,address[],address,uint256),uint32)": {
        "notice": "Swap ETH for tokens and pay % of ETH input as tip"
      },
      "swapTokensForETHAndTipAmount(address,(uint256,uint256,address[],address,uint256))": {
        "notice": "Swap tokens for ETH and pay amount of ETH as tip"
      },
      "swapTokensForETHAndTipPct(address,(uint256,uint256,address[],address,uint256),uint32)": {
        "notice": "Swap tokens for ETH and pay % of ETH as tip"
      },
      "swapTokensForETHWithPermitAndTipAmount(address,(uint256,uint256,address[],address,uint256),(address,uint256,uint256,uint8,bytes32,bytes32))": {
        "notice": "Swap tokens for ETH and pay amount of ETH as tip, using permit for approval"
      },
      "swapTokensForETHWithPermitAndTipPct(address,(uint256,uint256,address[],address,uint256),(address,uint256,uint256,uint8,bytes32,bytes32),uint32)": {
        "notice": "Swap tokens for ETH and pay % of ETH as tip, using permit for approval"
      },
      "swapTokensForTokensWithPermitAndTipAmount(address,(uint256,uint256,address[],address,uint256),(address,uint256,uint256,uint8,bytes32,bytes32))": {
        "notice": "Swap tokens for tokens and pay ETH amount as tip"
      },
      "swapTokensForTokensWithPermitAndTipPct(address,(uint256,uint256,address[],address,uint256),(address,uint256,uint256,uint8,bytes32,bytes32),address[],uint256,uint32)": {
        "notice": "Swap tokens for tokens and pay % of tokens as tip, using permit for approval"
      },
      "swapTokensForTokensWithTipAmount(address,(uint256,uint256,address[],address,uint256))": {
        "notice": "Swap tokens for tokens and pay ETH amount as tip"
      },
      "swapTokensForTokensWithTipPct(address,(uint256,uint256,address[],address,uint256),address[],uint256,uint32)": {
        "notice": "Swap tokens for tokens and pay % of tokens as tip"
      },
      "tipJar()": {
        "notice": "TipJar proxy"
      }
    },
    "version": 1
  },
  "storageLayout": {
    "storage": [],
    "types": null
  }
}