{
  "address": "0xa8374A422D7e1F2d9882BAd9fC165481a332aAf6",
  "abi": [
    {
      "inputs": [
        {
          "internalType": "contract IUniRouter",
          "name": "router",
          "type": "address"
        },
        {
          "components": [
            {
              "internalType": "uint256",
              "name": "amountIn",
              "type": "uint256"
            },
            {
              "internalType": "uint256",
              "name": "amountOutMin",
              "type": "uint256"
            },
            {
              "internalType": "address[]",
              "name": "path",
              "type": "address[]"
            },
            {
              "internalType": "address payable",
              "name": "to",
              "type": "address"
            },
            {
              "internalType": "uint256",
              "name": "deadline",
              "type": "uint256"
            }
          ],
          "internalType": "struct ArcherSwapRouter.Trade",
          "name": "trade",
          "type": "tuple"
        },
        {
          "internalType": "uint256",
          "name": "tipAmount",
          "type": "uint256"
        }
      ],
      "name": "swapETHForTokensWithTipAmount",
      "outputs": [],
      "stateMutability": "payable",
      "type": "function"
    },
    {
      "inputs": [
        {
          "internalType": "contract IUniRouter",
          "name": "router",
          "type": "address"
        },
        {
          "components": [
            {
              "internalType": "uint256",
              "name": "amountIn",
              "type": "uint256"
            },
            {
              "internalType": "uint256",
              "name": "amountOutMin",
              "type": "uint256"
            },
            {
              "internalType": "address[]",
              "name": "path",
              "type": "address[]"
            },
            {
              "internalType": "address payable",
              "name": "to",
              "type": "address"
            },
            {
              "internalType": "uint256",
              "name": "deadline",
              "type": "uint256"
            }
          ],
          "internalType": "struct ArcherSwapRouter.Trade",
          "name": "trade",
          "type": "tuple"
        },
        {
          "internalType": "uint32",
          "name": "tipPct",
          "type": "uint32"
        }
      ],
      "name": "swapETHForTokensWithTipPct",
      "outputs": [],
      "stateMutability": "payable",
      "type": "function"
    },
    {
      "inputs": [
        {
          "internalType": "contract IUniRouter",
          "name": "router",
          "type": "address"
        },
        {
          "components": [
            {
              "internalType": "uint256",
              "name": "amountIn",
              "type": "uint256"
            },
            {
              "internalType": "uint256",
              "name": "amountOutMin",
              "type": "uint256"
            },
            {
              "internalType": "address[]",
              "name": "path",
              "type": "address[]"
            },
            {
              "internalType": "address payable",
              "name": "to",
              "type": "address"
            },
            {
              "internalType": "uint256",
              "name": "deadline",
              "type": "uint256"
            }
          ],
          "internalType": "struct ArcherSwapRouter.Trade",
          "name": "trade",
          "type": "tuple"
        }
      ],
      "name": "swapTokensForETHAndTipAmount",
      "outputs": [],
      "stateMutability": "payable",
      "type": "function"
    },
    {
      "inputs": [
        {
          "internalType": "contract IUniRouter",
          "name": "router",
          "type": "address"
        },
        {
          "components": [
            {
              "internalType": "uint256",
              "name": "amountIn",
              "type": "uint256"
            },
            {
              "internalType": "uint256",
              "name": "amountOutMin",
              "type": "uint256"
            },
            {
              "internalType": "address[]",
              "name": "path",
              "type": "address[]"
            },
            {
              "internalType": "address payable",
              "name": "to",
              "type": "address"
            },
            {
              "internalType": "uint256",
              "name": "deadline",
              "type": "uint256"
            }
          ],
          "internalType": "struct ArcherSwapRouter.Trade",
          "name": "trade",
          "type": "tuple"
        },
        {
          "internalType": "uint32",
          "name": "tipPct",
          "type": "uint32"
        }
      ],
      "name": "swapTokensForETHAndTipPct",
      "outputs": [],
      "stateMutability": "payable",
      "type": "function"
    },
    {
      "inputs": [
        {
          "internalType": "contract IUniRouter",
          "name": "router",
          "type": "address"
        },
        {
          "components": [
            {
              "internalType": "uint256",
              "name": "amountIn",
              "type": "uint256"
            },
            {
              "internalType": "uint256",
              "name": "amountOutMin",
              "type": "uint256"
            },
            {
              "internalType": "address[]",
              "name": "path",
              "type": "address[]"
            },
            {
              "internalType": "address payable",
              "name": "to",
              "type": "address"
            },
            {
              "internalType": "uint256",
              "name": "deadline",
              "type": "uint256"
            }
          ],
          "internalType": "struct ArcherSwapRouter.Trade",
          "name": "trade",
          "type": "tuple"
        },
        {
          "internalType": "uint8",
          "name": "v",
          "type": "uint8"
        },
        {
          "internalType": "bytes32",
          "name": "r",
          "type": "bytes32"
        },
        {
          "internalType": "bytes32",
          "name": "s",
          "type": "bytes32"
        }
      ],
      "name": "swapTokensForETHWithPermitAndTipAmount",
      "outputs": [],
      "stateMutability": "payable",
      "type": "function"
    },
    {
      "inputs": [
        {
          "internalType": "contract IUniRouter",
          "name": "router",
          "type": "address"
        },
        {
          "components": [
            {
              "internalType": "uint256",
              "name": "amountIn",
              "type": "uint256"
            },
            {
              "internalType": "uint256",
              "name": "amountOutMin",
              "type": "uint256"
            },
            {
              "internalType": "address[]",
              "name": "path",
              "type": "address[]"
            },
            {
              "internalType": "address payable",
              "name": "to",
              "type": "address"
            },
            {
              "internalType": "uint256",
              "name": "deadline",
              "type": "uint256"
            }
          ],
          "internalType": "struct ArcherSwapRouter.Trade",
          "name": "trade",
          "type": "tuple"
        },
        {
          "internalType": "uint32",
          "name": "tipPct",
          "type": "uint32"
        },
        {
          "internalType": "uint8",
          "name": "v",
          "type": "uint8"
        },
        {
          "internalType": "bytes32",
          "name": "r",
          "type": "bytes32"
        },
        {
          "internalType": "bytes32",
          "name": "s",
          "type": "bytes32"
        }
      ],
      "name": "swapTokensForETHWithPermitAndTipPct",
      "outputs": [],
      "stateMutability": "payable",
      "type": "function"
    },
    {
      "inputs": [
        {
          "internalType": "contract IUniRouter",
          "name": "router",
          "type": "address"
        },
        {
          "components": [
            {
              "internalType": "uint256",
              "name": "amountIn",
              "type": "uint256"
            },
            {
              "internalType": "uint256",
              "name": "amountOutMin",
              "type": "uint256"
            },
            {
              "internalType": "address[]",
              "name": "path",
              "type": "address[]"
            },
            {
              "internalType": "address payable",
              "name": "to",
              "type": "address"
            },
            {
              "internalType": "uint256",
              "name": "deadline",
              "type": "uint256"
            }
          ],
          "internalType": "struct ArcherSwapRouter.Trade",
          "name": "trade",
          "type": "tuple"
        },
        {
          "internalType": "uint8",
          "name": "v",
          "type": "uint8"
        },
        {
          "internalType": "bytes32",
          "name": "r",
          "type": "bytes32"
        },
        {
          "internalType": "bytes32",
          "name": "s",
          "type": "bytes32"
        }
      ],
      "name": "swapTokensForTokensWithPermitAndTipAmount",
      "outputs": [],
      "stateMutability": "payable",
      "type": "function"
    },
    {
      "inputs": [
        {
          "internalType": "contract IUniRouter",
          "name": "router",
          "type": "address"
        },
        {
          "components": [
            {
              "internalType": "uint256",
              "name": "amountIn",
              "type": "uint256"
            },
            {
              "internalType": "uint256",
              "name": "amountOutMin",
              "type": "uint256"
            },
            {
              "internalType": "address[]",
              "name": "path",
              "type": "address[]"
            },
            {
              "internalType": "address payable",
              "name": "to",
              "type": "address"
            },
            {
              "internalType": "uint256",
              "name": "deadline",
              "type": "uint256"
            }
          ],
          "internalType": "struct ArcherSwapRouter.Trade",
          "name": "trade",
          "type": "tuple"
        },
        {
          "internalType": "address[]",
          "name": "pathToEth",
          "type": "address[]"
        },
        {
          "internalType": "uint256",
          "name": "minEth",
          "type": "uint256"
        },
        {
          "internalType": "uint32",
          "name": "tipPct",
          "type": "uint32"
        },
        {
          "internalType": "uint8",
          "name": "v",
          "type": "uint8"
        },
        {
          "internalType": "bytes32",
          "name": "r",
          "type": "bytes32"
        },
        {
          "internalType": "bytes32",
          "name": "s",
          "type": "bytes32"
        }
      ],
      "name": "swapTokensForTokensWithPermitAndTipPct",
      "outputs": [],
      "stateMutability": "payable",
      "type": "function"
    },
    {
      "inputs": [
        {
          "internalType": "contract IUniRouter",
          "name": "router",
          "type": "address"
        },
        {
          "components": [
            {
              "internalType": "uint256",
              "name": "amountIn",
              "type": "uint256"
            },
            {
              "internalType": "uint256",
              "name": "amountOutMin",
              "type": "uint256"
            },
            {
              "internalType": "address[]",
              "name": "path",
              "type": "address[]"
            },
            {
              "internalType": "address payable",
              "name": "to",
              "type": "address"
            },
            {
              "internalType": "uint256",
              "name": "deadline",
              "type": "uint256"
            }
          ],
          "internalType": "struct ArcherSwapRouter.Trade",
          "name": "trade",
          "type": "tuple"
        }
      ],
      "name": "swapTokensForTokensWithTipAmount",
      "outputs": [],
      "stateMutability": "payable",
      "type": "function"
    },
    {
      "inputs": [
        {
          "internalType": "contract IUniRouter",
          "name": "router",
          "type": "address"
        },
        {
          "components": [
            {
              "internalType": "uint256",
              "name": "amountIn",
              "type": "uint256"
            },
            {
              "internalType": "uint256",
              "name": "amountOutMin",
              "type": "uint256"
            },
            {
              "internalType": "address[]",
              "name": "path",
              "type": "address[]"
            },
            {
              "internalType": "address payable",
              "name": "to",
              "type": "address"
            },
            {
              "internalType": "uint256",
              "name": "deadline",
              "type": "uint256"
            }
          ],
          "internalType": "struct ArcherSwapRouter.Trade",
          "name": "trade",
          "type": "tuple"
        },
        {
          "internalType": "address[]",
          "name": "pathToEth",
          "type": "address[]"
        },
        {
          "internalType": "uint256",
          "name": "minEth",
          "type": "uint256"
        },
        {
          "internalType": "uint32",
          "name": "tipPct",
          "type": "uint32"
        }
      ],
      "name": "swapTokensForTokensWithTipPct",
      "outputs": [],
      "stateMutability": "payable",
      "type": "function"
    },
    {
      "inputs": [],
      "name": "tipJar",
      "outputs": [
        {
          "internalType": "contract ITipJar",
          "name": "",
          "type": "address"
        }
      ],
      "stateMutability": "view",
      "type": "function"
    }
  ],
  "transactionHash": "0xc1df1937a8110716cf79b1edaf562867b971a6cd240331635202c65f7dbb1b65",
  "args": [],
  "solcInputHash": "12ac1fb5e9fce4d54a3f9f45e9779629",
  "bytecode": "0x608060405234801561001057600080fd5b50612239806100206000396000f3fe6080604052600436106100bc5760003560e01c806364631838116100745780637aaceb951161004e5780637aaceb951461015b57806390b181c3146101ac578063ed65f37e146101bf576100bc565b806364631838146101225780636d11b22a1461013557806375b7155814610148576100bc565b806333228746116100a557806333228746146100e95780633caf8ea9146100fc578063500e5c7b1461010f576100bc565b806319a0f5a0146100c15780632fce1561146100d6575b600080fd5b6100d46100cf366004611b5f565b6101d2565b005b6100d46100e4366004611bad565b610288565b6100d46100f7366004611d4d565b610499565b6100d461010a366004611e2c565b61054c565b6100d461011d366004611d4d565b610667565b6100d4610130366004611cf6565b6107a7565b6100d4610143366004611c3f565b6108a6565b6100d4610156366004611b5f565b610b30565b34801561016757600080fd5b50610183735312b0d160e16feeeec13437a0053009e756428781565b60405173ffffffffffffffffffffffffffffffffffffffff909116815260200160405180910390f35b6100d46101ba366004611e2c565b610c3f565b6100d46101cd366004611dab565b610d5e565b60003411610241576040517f08c379a000000000000000000000000000000000000000000000000000000000815260206004820152601660248201527f74697020616d6f756e74206d757374206265203e20300000000000000000000060448201526064015b60405180910390fd5b6102638282356020840135610259604086018661208f565b8660800135610e80565b61026c34610fad565b61028461027f6080830160608401611b23565b61101d565b5050565b60008163ffffffff16116102f8576040517f08c379a000000000000000000000000000000000000000000000000000000000815260206004820152601260248201527f746970506374206d757374206265203e203000000000000000000000000000006044820152606401610238565b61031a868635602088013561031060408a018a61208f565b8a6080013561108a565b600084846000818110610356577f4e487b7100000000000000000000000000000000000000000000000000000000600052603260045260246000fd5b905060200201602081019061036b9190611b23565b6040517f70a0823100000000000000000000000000000000000000000000000000000000815230600482015290915060009073ffffffffffffffffffffffffffffffffffffffff8316906370a082319060240160206040518083038186803b1580156103d657600080fd5b505afa1580156103ea573d6000803e3d6000fd5b505050506040513d601f19601f8201168201806040525081019061040e9190611e9c565b90506000620f424061042663ffffffff861684612146565b610430919061210d565b9050610475898289898080602002602001604051908101604052809392919081815260200183836020028082843760009201919091525050505060808c01358961117c565b61048e8361048960808b0160608c01611b23565b6112f0565b505050505050505050565b60008163ffffffff1611610509576040517f08c379a000000000000000000000000000000000000000000000000000000000815260206004820152601260248201527f746970506374206d757374206265203e203000000000000000000000000000006044820152606401610238565b61052b8383356020850135610521604087018761208f565b8760800135610e80565b610534816113b1565b61054761027f6080840160608501611b23565b505050565b600034116105b6576040517f08c379a000000000000000000000000000000000000000000000000000000000815260206004820152601660248201527f74697020616d6f756e74206d757374206265203e2030000000000000000000006044820152606401610238565b6106226105c6604086018661208f565b60008181106105fe577f4e487b7100000000000000000000000000000000000000000000000000000000600052603260045260246000fd5b90506020020160208101906106139190611b23565b8535608087013586868661144e565b610644858535602087013561063a604089018961208f565b8960800135610e80565b61064d34610fad565b61066061027f6080860160608701611b23565b5050505050565b60008163ffffffff16116106d7576040517f08c379a000000000000000000000000000000000000000000000000000000000815260206004820152601260248201527f746970506374206d757374206265203e203000000000000000000000000000006044820152606401610238565b60003411610741576040517f08c379a000000000000000000000000000000000000000000000000000000000815260206004820152601a60248201527f6d7573742073656e642045544820746f20636f766572207469700000000000006044820152606401610238565b6000620f424061075763ffffffff841634612146565b610761919061210d565b905061076c81610fad565b61078e8484356020860135610784604088018861208f565b88608001356114e0565b6107a161027f6080850160608601611b23565b50505050565b60008111610811576040517f08c379a000000000000000000000000000000000000000000000000000000000815260206004820152601660248201527f74697020616d6f756e74206d757374206265203e2030000000000000000000006044820152606401610238565b8034101561087b576040517f08c379a000000000000000000000000000000000000000000000000000000000815260206004820152601a60248201527f6d7573742073656e642045544820746f20636f766572207469700000000000006044820152606401610238565b61088481610fad565b610534838335602085013561089c604087018761208f565b87608001356114e0565b60008463ffffffff1611610916576040517f08c379a000000000000000000000000000000000000000000000000000000000815260206004820152601260248201527f746970506374206d757374206265203e203000000000000000000000000000006044820152606401610238565b61098261092660408a018a61208f565b600081811061095e577f4e487b7100000000000000000000000000000000000000000000000000000000600052603260045260246000fd5b90506020020160208101906109739190611b23565b893560808b013586868661144e565b6109a489893560208b013561099a60408d018d61208f565b8d6080013561108a565b6000878760008181106109e0577f4e487b7100000000000000000000000000000000000000000000000000000000600052603260045260246000fd5b90506020020160208101906109f59190611b23565b6040517f70a0823100000000000000000000000000000000000000000000000000000000815230600482015290915060009073ffffffffffffffffffffffffffffffffffffffff8316906370a082319060240160206040518083038186803b158015610a6057600080fd5b505afa158015610a74573d6000803e3d6000fd5b505050506040513d601f19601f82011682018060405250810190610a989190611e9c565b90506000620f4240610ab063ffffffff891684612146565b610aba919061210d565b9050610b0e8c828c8c80806020026020016040519081016040528093929190818152602001838360200280828437600081840152601f19601f820116905080830192505050505050508e608001358c61117c565b610b228361048960808e0160608f01611b23565b505050505050505050505050565b60003411610b9a576040517f08c379a000000000000000000000000000000000000000000000000000000000815260206004820152601660248201527f74697020616d6f756e74206d757374206265203e2030000000000000000000006044820152606401610238565b610ba334610fad565b610bc58282356020840135610bbb604086018661208f565b866080013561108a565b610284610bd5604083018361208f565b610be2604085018561208f565b9050818110610c1a577f4e487b7100000000000000000000000000000000000000000000000000000000600052603260045260246000fd5b9050602002016020810190610c2f9190611b23565b6104896080840160608501611b23565b60003411610ca9576040517f08c379a000000000000000000000000000000000000000000000000000000000815260206004820152601660248201527f74697020616d6f756e74206d757374206265203e2030000000000000000000006044820152606401610238565b610cb234610fad565b610cc26105c6604086018661208f565b610ce48585356020870135610cda604089018961208f565b896080013561108a565b610660610cf4604086018661208f565b610d01604088018861208f565b9050818110610d39577f4e487b7100000000000000000000000000000000000000000000000000000000600052603260045260246000fd5b9050602002016020810190610d4e9190611b23565b6104896080870160608801611b23565b60008463ffffffff1611610dce576040517f08c379a000000000000000000000000000000000000000000000000000000000815260206004820152601260248201527f746970506374206d757374206265203e203000000000000000000000000000006044820152606401610238565b610e3a610dde604087018761208f565b6000818110610e16577f4e487b7100000000000000000000000000000000000000000000000000000000600052603260045260246000fd5b9050602002016020810190610e2b9190611b23565b8635608088013586868661144e565b610e5c8686356020880135610e5260408a018a61208f565b8a60800135610e80565b610e65846113b1565b610e7861027f6080870160608801611b23565b505050505050565b600083836000818110610ebc577f4e487b7100000000000000000000000000000000000000000000000000000000600052603260045260246000fd5b9050602002016020810190610ed19190611b23565b9050610ef573ffffffffffffffffffffffffffffffffffffffff8216333089611555565b610f1673ffffffffffffffffffffffffffffffffffffffff82168888611631565b6040517f791ac94700000000000000000000000000000000000000000000000000000000815273ffffffffffffffffffffffffffffffffffffffff88169063791ac94790610f7290899089908990899030908a90600401611fba565b600060405180830381600087803b158015610f8c57600080fd5b505af1158015610fa0573d6000803e3d6000fd5b5050505050505050505050565b735312b0d160e16feeeec13437a0053009e756428773ffffffffffffffffffffffffffffffffffffffff16632755cd2d826040518263ffffffff1660e01b81526004016000604051808303818588803b15801561100957600080fd5b505af1158015610e78573d6000803e3d6000fd5b60008173ffffffffffffffffffffffffffffffffffffffff164760405160006040518083038185875af1925050503d8060008114611077576040519150601f19603f3d011682016040523d82523d6000602084013e61107c565b606091505b505090508061028457600080fd5b6000838360008181106110c6577f4e487b7100000000000000000000000000000000000000000000000000000000600052603260045260246000fd5b90506020020160208101906110db9190611b23565b90506110ff73ffffffffffffffffffffffffffffffffffffffff8216333089611555565b61112073ffffffffffffffffffffffffffffffffffffffff82168888611631565b6040517f5c11d79500000000000000000000000000000000000000000000000000000000815273ffffffffffffffffffffffffffffffffffffffff881690635c11d79590610f7290899089908990899030908a90600401611fba565b6111e88585856000815181106111bb577f4e487b7100000000000000000000000000000000000000000000000000000000600052603260045260246000fd5b602002602001015173ffffffffffffffffffffffffffffffffffffffff166116319092919063ffffffff16565b6040517f791ac94700000000000000000000000000000000000000000000000000000000815273ffffffffffffffffffffffffffffffffffffffff86169063791ac947906112429087908590889030908990600401612005565b600060405180830381600087803b15801561125c57600080fd5b505af1158015611270573d6000803e3d6000fd5b50505050735312b0d160e16feeeec13437a0053009e756428773ffffffffffffffffffffffffffffffffffffffff16632755cd2d476040518263ffffffff1660e01b81526004016000604051808303818588803b1580156112d057600080fd5b505af11580156112e4573d6000803e3d6000fd5b50505050505050505050565b6040517f70a0823100000000000000000000000000000000000000000000000000000000815230600482015261028490829073ffffffffffffffffffffffffffffffffffffffff8516906370a082319060240160206040518083038186803b15801561135b57600080fd5b505afa15801561136f573d6000803e3d6000fd5b505050506040513d601f19601f820116820180604052508101906113939190611e9c565b73ffffffffffffffffffffffffffffffffffffffff8516919061173e565b476000620f42406113c863ffffffff851684612146565b6113d2919061210d565b9050735312b0d160e16feeeec13437a0053009e756428773ffffffffffffffffffffffffffffffffffffffff16632755cd2d826040518263ffffffff1660e01b81526004016000604051808303818588803b15801561143057600080fd5b505af1158015611444573d6000803e3d6000fd5b5050505050505050565b6040517fd505accf000000000000000000000000000000000000000000000000000000008152336004820152306024820152604481018690526064810185905260ff8416608482015260a4810183905260c4810182905273ffffffffffffffffffffffffffffffffffffffff87169063d505accf9060e401600060405180830381600087803b1580156112d057600080fd5b6040517fb6f9de9500000000000000000000000000000000000000000000000000000000815273ffffffffffffffffffffffffffffffffffffffff87169063b6f9de9590879061153c9088908890889030908990600401611f76565b6000604051808303818588803b158015610f8c57600080fd5b60405173ffffffffffffffffffffffffffffffffffffffff808516602483015283166044820152606481018290526107a19085907f23b872dd00000000000000000000000000000000000000000000000000000000906084015b604080517fffffffffffffffffffffffffffffffffffffffffffffffffffffffffffffffe08184030181529190526020810180517bffffffffffffffffffffffffffffffffffffffffffffffffffffffff167fffffffff0000000000000000000000000000000000000000000000000000000090931692909217909152611794565b6040517fdd62ed3e00000000000000000000000000000000000000000000000000000000815230600482015273ffffffffffffffffffffffffffffffffffffffff8381166024830152600091839186169063dd62ed3e9060440160206040518083038186803b1580156116a357600080fd5b505afa1580156116b7573d6000803e3d6000fd5b505050506040513d601f19601f820116820180604052508101906116db9190611e9c565b6116e591906120f5565b60405173ffffffffffffffffffffffffffffffffffffffff85166024820152604481018290529091506107a19085907f095ea7b300000000000000000000000000000000000000000000000000000000906064016115af565b60405173ffffffffffffffffffffffffffffffffffffffff83166024820152604481018290526105479084907fa9059cbb00000000000000000000000000000000000000000000000000000000906064016115af565b60006117f6826040518060400160405280602081526020017f5361666545524332303a206c6f772d6c6576656c2063616c6c206661696c65648152508573ffffffffffffffffffffffffffffffffffffffff166118a09092919063ffffffff16565b80519091501561054757808060200190518101906118149190611b3f565b610547576040517f08c379a000000000000000000000000000000000000000000000000000000000815260206004820152602a60248201527f5361666545524332303a204552433230206f7065726174696f6e20646964206e60448201527f6f742073756363656564000000000000000000000000000000000000000000006064820152608401610238565b60606118af84846000856118b9565b90505b9392505050565b60608247101561194b576040517f08c379a000000000000000000000000000000000000000000000000000000000815260206004820152602660248201527f416464726573733a20696e73756666696369656e742062616c616e636520666f60448201527f722063616c6c00000000000000000000000000000000000000000000000000006064820152608401610238565b61195485611a40565b6119ba576040517f08c379a000000000000000000000000000000000000000000000000000000000815260206004820152601d60248201527f416464726573733a2063616c6c20746f206e6f6e2d636f6e74726163740000006044820152606401610238565b6000808673ffffffffffffffffffffffffffffffffffffffff1685876040516119e39190611f09565b60006040518083038185875af1925050503d8060008114611a20576040519150601f19603f3d011682016040523d82523d6000602084013e611a25565b606091505b5091509150611a35828286611a4a565b979650505050505050565b803b15155b919050565b60608315611a595750816118b2565b825115611a695782518084602001fd5b816040517f08c379a00000000000000000000000000000000000000000000000000000000081526004016102389190611f25565b60008083601f840112611aae578182fd5b50813567ffffffffffffffff811115611ac5578182fd5b6020830191508360208260051b8501011115611ae057600080fd5b9250929050565b600060a08284031215611af8578081fd5b50919050565b803563ffffffff81168114611a4557600080fd5b803560ff81168114611a4557600080fd5b600060208284031215611b34578081fd5b81356118b2816121de565b600060208284031215611b50578081fd5b815180151581146118b2578182fd5b60008060408385031215611b71578081fd5b8235611b7c816121de565b9150602083013567ffffffffffffffff811115611b97578182fd5b611ba385828601611ae7565b9150509250929050565b60008060008060008060a08789031215611bc5578182fd5b8635611bd0816121de565b9550602087013567ffffffffffffffff80821115611bec578384fd5b611bf88a838b01611ae7565b96506040890135915080821115611c0d578384fd5b50611c1a89828a01611a9d565b90955093505060608701359150611c3360808801611afe565b90509295509295509295565b60008060008060008060008060006101008a8c031215611c5d578283fd5b8935611c68816121de565b985060208a013567ffffffffffffffff80821115611c84578485fd5b611c908d838e01611ae7565b995060408c0135915080821115611ca5578485fd5b50611cb28c828d01611a9d565b90985096505060608a01359450611ccb60808b01611afe565b9350611cd960a08b01611b12565b925060c08a0135915060e08a013590509295985092959850929598565b600080600060608486031215611d0a578283fd5b8335611d15816121de565b9250602084013567ffffffffffffffff811115611d30578283fd5b611d3c86828701611ae7565b925050604084013590509250925092565b600080600060608486031215611d61578283fd5b8335611d6c816121de565b9250602084013567ffffffffffffffff811115611d87578283fd5b611d9386828701611ae7565b925050611da260408501611afe565b90509250925092565b60008060008060008060c08789031215611dc3578182fd5b8635611dce816121de565b9550602087013567ffffffffffffffff811115611de9578283fd5b611df589828a01611ae7565b955050611e0460408801611afe565b9350611e1260608801611b12565b92506080870135915060a087013590509295509295509295565b600080600080600060a08688031215611e43578283fd5b8535611e4e816121de565b9450602086013567ffffffffffffffff811115611e69578384fd5b611e7588828901611ae7565b945050611e8460408701611b12565b94979396509394606081013594506080013592915050565b600060208284031215611ead578081fd5b5051919050565b60008284526020808501945082825b85811015611efe578135611ed6816121de565b73ffffffffffffffffffffffffffffffffffffffff1687529582019590820190600101611ec3565b509495945050505050565b60008251611f1b818460208701612183565b9190910192915050565b6000602082528251806020840152611f44816040850160208701612183565b601f017fffffffffffffffffffffffffffffffffffffffffffffffffffffffffffffffe0169190910160400192915050565b600086825260806020830152611f90608083018688611eb4565b73ffffffffffffffffffffffffffffffffffffffff94909416604083015250606001529392505050565b600087825286602083015260a06040830152611fda60a083018688611eb4565b73ffffffffffffffffffffffffffffffffffffffff9490941660608301525060800152949350505050565b600060a082018783526020878185015260a0604085015281875180845260c0860191508289019350845b8181101561206157845173ffffffffffffffffffffffffffffffffffffffff168352938301939183019160010161202f565b505073ffffffffffffffffffffffffffffffffffffffff969096166060850152505050608001529392505050565b60008083357fffffffffffffffffffffffffffffffffffffffffffffffffffffffffffffffe18436030181126120c3578283fd5b83018035915067ffffffffffffffff8211156120dd578283fd5b6020019150600581901b3603821315611ae057600080fd5b60008219821115612108576121086121af565b500190565b600082612141577f4e487b710000000000000000000000000000000000000000000000000000000081526012600452602481fd5b500490565b6000817fffffffffffffffffffffffffffffffffffffffffffffffffffffffffffffffff048311821515161561217e5761217e6121af565b500290565b60005b8381101561219e578181015183820152602001612186565b838111156107a15750506000910152565b7f4e487b7100000000000000000000000000000000000000000000000000000000600052601160045260246000fd5b73ffffffffffffffffffffffffffffffffffffffff8116811461220057600080fd5b5056fea2646970667358221220febbe83c2df33dc11de4b78484b3a9057eae74f03a9160f50040faade061498a64736f6c63430008030033",
  "devdoc": {
    "details": "Allows Uniswap V2 Router-compliant trades to be paid via % tips instead of gas",
    "kind": "dev",
    "methods": {
      "swapETHForTokensWithTipAmount(address,(uint256,uint256,address[],address,uint256),uint256)": {
        "params": {
          "router": "Uniswap V2-compliant Router contract",
          "tipAmount": "amount of ETH to pay as tip",
          "trade": "Trade details"
        }
      },
      "swapETHForTokensWithTipPct(address,(uint256,uint256,address[],address,uint256),uint32)": {
        "params": {
          "router": "Uniswap V2-compliant Router contract",
          "tipPct": "% of ETH to pay as tip",
          "trade": "Trade details"
        }
      },
      "swapTokensForETHAndTipAmount(address,(uint256,uint256,address[],address,uint256))": {
        "params": {
          "router": "Uniswap V2-compliant Router contract",
          "trade": "Trade details"
        }
      },
      "swapTokensForETHAndTipPct(address,(uint256,uint256,address[],address,uint256),uint32)": {
        "params": {
          "router": "Uniswap V2-compliant Router contract",
          "tipPct": "% of resulting ETH to pay as tip",
          "trade": "Trade details"
        }
      },
      "swapTokensForETHWithPermitAndTipAmount(address,(uint256,uint256,address[],address,uint256),uint8,bytes32,bytes32)": {
        "params": {
          "r": "Half of the ECDSA signature pair",
          "router": "Uniswap V2-compliant Router contract",
          "s": "Half of the ECDSA signature pair",
          "trade": "Trade details",
          "v": "The recovery byte of the signature"
        }
      },
      "swapTokensForETHWithPermitAndTipPct(address,(uint256,uint256,address[],address,uint256),uint32,uint8,bytes32,bytes32)": {
        "params": {
          "r": "Half of the ECDSA signature pair",
          "router": "Uniswap V2-compliant Router contract",
          "s": "Half of the ECDSA signature pair",
          "tipPct": "% of resulting ETH to pay as tip",
          "trade": "Trade details",
          "v": "The recovery byte of the signature"
        }
      },
      "swapTokensForTokensWithPermitAndTipAmount(address,(uint256,uint256,address[],address,uint256),uint8,bytes32,bytes32)": {
        "params": {
          "r": "Half of the ECDSA signature pair",
          "router": "Uniswap V2-compliant Router contract",
          "s": "Half of the ECDSA signature pair",
          "trade": "Trade details",
          "v": "The recovery byte of the signature"
        }
      },
      "swapTokensForTokensWithPermitAndTipPct(address,(uint256,uint256,address[],address,uint256),address[],uint256,uint32,uint8,bytes32,bytes32)": {
        "params": {
          "minEth": "ETH minimum for tip conversion",
          "pathToEth": "Path to ETH for tip",
          "r": "Half of the ECDSA signature pair",
          "router": "Uniswap V2-compliant Router contract",
          "s": "Half of the ECDSA signature pair",
          "tipPct": "% of resulting tokens to pay as tip",
          "trade": "Trade details",
          "v": "The recovery byte of the signature"
        }
      },
      "swapTokensForTokensWithTipAmount(address,(uint256,uint256,address[],address,uint256))": {
        "params": {
          "router": "Uniswap V2-compliant Router contract",
          "trade": "Trade details"
        }
      },
      "swapTokensForTokensWithTipPct(address,(uint256,uint256,address[],address,uint256),address[],uint256,uint32)": {
        "params": {
          "minEth": "ETH minimum for tip conversion",
          "pathToEth": "Path to ETH for tip",
          "router": "Uniswap V2-compliant Router contract",
          "tipPct": "% of resulting tokens to pay as tip",
          "trade": "Trade details"
        }
      }
    },
    "title": "ArcherSwapRouter",
    "version": 1
  },
  "userdoc": {
    "kind": "user",
    "methods": {
      "swapETHForTokensWithTipAmount(address,(uint256,uint256,address[],address,uint256),uint256)": {
        "notice": "Swap ETH for tokens and pay % of ETH input as tip"
      },
      "swapETHForTokensWithTipPct(address,(uint256,uint256,address[],address,uint256),uint32)": {
        "notice": "Swap ETH for tokens and pay % of ETH input as tip"
      },
      "swapTokensForETHAndTipAmount(address,(uint256,uint256,address[],address,uint256))": {
        "notice": "Swap tokens for ETH and pay amount of ETH as tip"
      },
      "swapTokensForETHAndTipPct(address,(uint256,uint256,address[],address,uint256),uint32)": {
        "notice": "Swap tokens for ETH and pay % of ETH as tip"
      },
      "swapTokensForETHWithPermitAndTipAmount(address,(uint256,uint256,address[],address,uint256),uint8,bytes32,bytes32)": {
        "notice": "Swap tokens for ETH and pay amount of ETH as tip, using permit for approval"
      },
      "swapTokensForETHWithPermitAndTipPct(address,(uint256,uint256,address[],address,uint256),uint32,uint8,bytes32,bytes32)": {
        "notice": "Swap tokens for ETH and pay % of ETH as tip, using permit for approval"
      },
      "swapTokensForTokensWithPermitAndTipAmount(address,(uint256,uint256,address[],address,uint256),uint8,bytes32,bytes32)": {
        "notice": "Swap tokens for tokens and pay ETH amount as tip"
      },
      "swapTokensForTokensWithPermitAndTipPct(address,(uint256,uint256,address[],address,uint256),address[],uint256,uint32,uint8,bytes32,bytes32)": {
        "notice": "Swap tokens for tokens and pay % of tokens as tip, using permit for approval"
      },
      "swapTokensForTokensWithTipAmount(address,(uint256,uint256,address[],address,uint256))": {
        "notice": "Swap tokens for tokens and pay ETH amount as tip"
      },
      "swapTokensForTokensWithTipPct(address,(uint256,uint256,address[],address,uint256),address[],uint256,uint32)": {
        "notice": "Swap tokens for tokens and pay % of tokens as tip"
      },
      "tipJar()": {
        "notice": "TipJar proxy"
      }
    },
    "version": 1
  },
  "storageLayout": {
    "storage": [],
    "types": null
  }
}